{
  "contractName": "EnglishAuction",
  "abi": [
    {
      "constant": true,
      "inputs": [],
      "name": "sold",
      "outputs": [
        {
          "name": "",
          "type": "bool"
        }
      ],
      "payable": false,
      "stateMutability": "view",
      "type": "function"
    },
    {
      "constant": true,
      "inputs": [],
      "name": "duration",
      "outputs": [
        {
          "name": "",
          "type": "uint256"
        }
      ],
      "payable": false,
      "stateMutability": "view",
      "type": "function"
    },
    {
      "constant": true,
      "inputs": [],
      "name": "paid",
      "outputs": [
        {
          "name": "",
          "type": "bool"
        }
      ],
      "payable": false,
      "stateMutability": "view",
      "type": "function"
    },
    {
      "constant": true,
      "inputs": [],
      "name": "min_increment",
      "outputs": [
        {
          "name": "",
          "type": "uint8"
        }
      ],
      "payable": false,
      "stateMutability": "view",
      "type": "function"
    },
    {
      "constant": true,
      "inputs": [],
      "name": "bid_expiration",
      "outputs": [
        {
          "name": "",
          "type": "uint256"
        }
      ],
      "payable": false,
      "stateMutability": "view",
      "type": "function"
    },
    {
      "constant": true,
      "inputs": [],
      "name": "start_time",
      "outputs": [
        {
          "name": "",
          "type": "uint256"
        }
      ],
      "payable": false,
      "stateMutability": "view",
      "type": "function"
    },
    {
      "constant": true,
      "inputs": [],
      "name": "bid_block",
      "outputs": [
        {
          "name": "",
          "type": "uint256"
        }
      ],
      "payable": false,
      "stateMutability": "view",
      "type": "function"
    },
    {
      "constant": true,
      "inputs": [],
      "name": "buyout_price",
      "outputs": [
        {
          "name": "",
          "type": "uint256"
        }
      ],
      "payable": false,
      "stateMutability": "view",
      "type": "function"
    },
    {
      "inputs": [
        {
          "name": "_duration",
          "type": "uint256"
        },
        {
          "name": "_min_increment",
          "type": "uint8"
        },
        {
          "name": "_buyout_price",
          "type": "uint256"
        },
        {
          "name": "_reserve_price",
          "type": "uint256"
        },
        {
          "name": "_bid_expiration",
          "type": "uint256"
        }
      ],
      "payable": false,
      "stateMutability": "nonpayable",
      "type": "constructor"
    },
    {
      "anonymous": false,
      "inputs": [
        {
          "indexed": false,
          "name": "",
          "type": "address"
        },
        {
          "indexed": false,
          "name": "",
          "type": "uint256"
        }
      ],
      "name": "SoldByBuyout",
      "type": "event"
    },
    {
      "anonymous": false,
      "inputs": [
        {
          "indexed": false,
          "name": "",
          "type": "address"
        },
        {
          "indexed": false,
          "name": "",
          "type": "uint256"
        }
      ],
      "name": "Sold",
      "type": "event"
    },
    {
      "anonymous": false,
      "inputs": [],
      "name": "Unsold",
      "type": "event"
    },
    {
      "anonymous": false,
      "inputs": [
        {
          "indexed": false,
          "name": "",
          "type": "address"
        }
      ],
      "name": "OfferOutbid",
      "type": "event"
    },
    {
      "anonymous": false,
      "inputs": [
        {
          "indexed": false,
          "name": "",
          "type": "address"
        },
        {
          "indexed": false,
          "name": "",
          "type": "uint256"
        }
      ],
      "name": "WithdrawalExecuted",
      "type": "event"
    },
    {
      "anonymous": false,
      "inputs": [
        {
          "indexed": false,
          "name": "",
          "type": "uint256"
        },
        {
          "indexed": false,
          "name": "",
          "type": "uint256"
        }
      ],
      "name": "LogAuctionStarting",
      "type": "event"
    },
    {
      "anonymous": false,
      "inputs": [
        {
          "indexed": false,
          "name": "",
          "type": "address"
        },
        {
          "indexed": false,
          "name": "",
          "type": "uint256"
        },
        {
          "indexed": false,
          "name": "",
          "type": "uint256"
        }
      ],
      "name": "LogHighestBid",
      "type": "event"
    },
    {
      "constant": false,
      "inputs": [],
      "name": "buy_now",
      "outputs": [],
      "payable": true,
      "stateMutability": "payable",
      "type": "function"
    },
    {
      "constant": false,
      "inputs": [],
      "name": "bid",
      "outputs": [],
      "payable": true,
      "stateMutability": "payable",
      "type": "function"
    },
    {
      "constant": false,
      "inputs": [],
      "name": "finalize",
      "outputs": [],
      "payable": false,
      "stateMutability": "nonpayable",
      "type": "function"
    },
    {
      "constant": false,
      "inputs": [],
      "name": "withdrawal",
      "outputs": [],
      "payable": false,
      "stateMutability": "nonpayable",
      "type": "function"
    }
  ],
  "bytecode": "0x608060405233600560016101000a81548173ffffffffffffffffffffffffffffffffffffffff021916908373ffffffffffffffffffffffffffffffffffffffff160217905550436009556000600c60006101000a81548160ff0219169083151502179055506000600c60016101000a81548160ff02191690831515021790555034801561008b57600080fd5b5060405160a080610d18833981018060405260a08110156100ab57600080fd5b81019080805190602001909291908051906020019092919080519060200190929190805190602001909291908051906020019092919050505060018460ff16101580156100fc575060648460ff1611155b61010557600080fd5b81831161011157600080fd5b6000831161011e57600080fd5b6000821161012b57600080fd5b8060068190555083600760006101000a81548160ff021916908360ff160217905550826008819055508160008190555084600a81905550600a54600154016002819055507fc2c19c52f2e656ec534b32dc921dfde2ad111398350b58fbfb04ec93640e9ecd600154600254604051808381526020018281526020019250505060405180910390a15050505050610b52806101c66000396000f3fe6080604052600436106100a75760003560e01c80637afc2e50116100645780637afc2e5014610187578063834ee417146101b2578063969a00e0146101dd578063b4d5be5f146101e7578063cf0bdecc14610212578063d4e932921461023d576100a7565b806302c7e7af146100ac5780630fb5a6b4146100db5780631998aeef14610106578063295b4e17146101105780634bb278f31461013f578063721f57be14610156575b600080fd5b3480156100b857600080fd5b506100c1610254565b604051808215151515815260200191505060405180910390f35b3480156100e757600080fd5b506100f0610267565b6040518082815260200191505060405180910390f35b61010e61026d565b005b34801561011c57600080fd5b50610125610609565b604051808215151515815260200191505060405180910390f35b34801561014b57600080fd5b5061015461061c565b005b34801561016257600080fd5b5061016b6107e5565b604051808260ff1660ff16815260200191505060405180910390f35b34801561019357600080fd5b5061019c6107f8565b6040518082815260200191505060405180910390f35b3480156101be57600080fd5b506101c76107fe565b6040518082815260200191505060405180910390f35b6101e5610804565b005b3480156101f357600080fd5b506101fc610990565b6040518082815260200191505060405180910390f35b34801561021e57600080fd5b50610227610996565b6040518082815260200191505060405180910390f35b34801561024957600080fd5b5061025261099c565b005b600c60009054906101000a900460ff1681565b600a5481565b6009544310158015610285575043600a546009540110155b61028e57600080fd5b3373ffffffffffffffffffffffffffffffffffffffff16600560019054906101000a900473ffffffffffffffffffffffffffffffffffffffff1673ffffffffffffffffffffffffffffffffffffffff1614156102e957600080fd5b600360009054906101000a900473ffffffffffffffffffffffffffffffffffffffff1673ffffffffffffffffffffffffffffffffffffffff163373ffffffffffffffffffffffffffffffffffffffff16141561034457600080fd5b600060045411801561035b575043600654600b5401105b1561040b576001600c60006101000a81548160ff0219169083151502179055507fae92ab4b6f8f401ead768d3273e6bb937a13e39827d19c6376e8fd4512a05d9a600360009054906101000a900473ffffffffffffffffffffffffffffffffffffffff16600454604051808373ffffffffffffffffffffffffffffffffffffffff1673ffffffffffffffffffffffffffffffffffffffff1681526020018281526020019250505060405180910390a15b60001515600c60009054906101000a900460ff1615151461042b57600080fd5b600060045414156104995760005434101561044557600080fd5b3460048190555033600360006101000a81548173ffffffffffffffffffffffffffffffffffffffff021916908373ffffffffffffffffffffffffffffffffffffffff16021790555043600b81905550610607565b60006064600760009054906101000a900460ff1660ff1660045402816104bb57fe5b04905080600454013410156104cf57600080fd5b6000600360009054906101000a900473ffffffffffffffffffffffffffffffffffffffff169050600060045490503460048190555033600360006101000a81548173ffffffffffffffffffffffffffffffffffffffff021916908373ffffffffffffffffffffffffffffffffffffffff16021790555043600b8190555080600d60008473ffffffffffffffffffffffffffffffffffffffff1673ffffffffffffffffffffffffffffffffffffffff168152602001908152602001600020819055507f2fdfae8f739f39313524d099053770ab9602ed675bd8e847776a4108ee4673c4333483604051808473ffffffffffffffffffffffffffffffffffffffff1673ffffffffffffffffffffffffffffffffffffffff168152602001838152602001828152602001935050505060405180910390a15050505b565b600c60019054906101000a900460ff1681565b600a546009540143118061063c5750600c60009054906101000a900460ff165b61064557600080fd5b60001515600c60019054906101000a900460ff1615151461066557600080fd5b3373ffffffffffffffffffffffffffffffffffffffff16600360009054906101000a900473ffffffffffffffffffffffffffffffffffffffff1673ffffffffffffffffffffffffffffffffffffffff16148061070e57503373ffffffffffffffffffffffffffffffffffffffff16600560019054906101000a900473ffffffffffffffffffffffffffffffffffffffff1673ffffffffffffffffffffffffffffffffffffffff16145b61071757600080fd5b6001600c60016101000a81548160ff021916908315150217905550600c60009054906101000a900460ff16610777577f7504f4813ca88974fc5fc20478fd51dffc3c4edba302c1f77e786ffea84b3a6060405160405180910390a16107e3565b600560019054906101000a900473ffffffffffffffffffffffffffffffffffffffff1673ffffffffffffffffffffffffffffffffffffffff166108fc6004549081150290604051600060405180830381858888f193505050501580156107e1573d6000803e3d6000fd5b505b565b600760009054906101000a900460ff1681565b60065481565b60095481565b600954431015801561081c575043600a546009540110155b61082557600080fd5b3373ffffffffffffffffffffffffffffffffffffffff16600560019054906101000a900473ffffffffffffffffffffffffffffffffffffffff1673ffffffffffffffffffffffffffffffffffffffff16141561088057600080fd5b60001515600c60009054906101000a900460ff161515146108a057600080fd5b6000600454146108af57600080fd5b6008543410156108be57600080fd5b6001600c60006101000a81548160ff02191690831515021790555033600360006101000a81548173ffffffffffffffffffffffffffffffffffffffff021916908373ffffffffffffffffffffffffffffffffffffffff160217905550346004819055507fa05d6dd77f30aca16df940cdd5c6a325ef492aeec69ca312a0ec30be14a6a52d33600854604051808373ffffffffffffffffffffffffffffffffffffffff1673ffffffffffffffffffffffffffffffffffffffff1681526020018281526020019250505060405180910390a1565b600b5481565b60085481565b6000600d60003373ffffffffffffffffffffffffffffffffffffffff1673ffffffffffffffffffffffffffffffffffffffff16815260200190815260200160002054116109e857600080fd5b6000600d60003373ffffffffffffffffffffffffffffffffffffffff1673ffffffffffffffffffffffffffffffffffffffff1681526020019081526020016000205490506000600d60003373ffffffffffffffffffffffffffffffffffffffff1673ffffffffffffffffffffffffffffffffffffffff168152602001908152602001600020819055507f1131c2afe9ce72c59360d085f89bfdd088fcf4a3c93eec6cc5ff42f5d6b0801f3382604051808373ffffffffffffffffffffffffffffffffffffffff1673ffffffffffffffffffffffffffffffffffffffff1681526020018281526020019250505060405180910390a13373ffffffffffffffffffffffffffffffffffffffff166108fc829081150290604051600060405180830381858888f19350505050158015610b22573d6000803e3d6000fd5b505056fea165627a7a723058201c695cdbd092d75ec85368ae0fc4e61e4e1cef1b85d68b4a8aee298bafabacfa0029",
  "source": "pragma solidity >=0.4.22 <0.6.0;\n\nimport \"./Auction.sol\";\nimport \"./Escrow.sol\";\n\ncontract EnglishAuction is Auction {\n    \n    /// static after constructor\n    address payable seller = msg.sender;\n    uint public bid_expiration; /// can be smaller?\n    uint8 public min_increment; /// percentual wrt the highest bid\n    uint public buyout_price;\n    uint public start_time = block.number;\n    uint public duration; /// can be smaller?\n    \n    /// auction state\n    uint public bid_block;\n    bool public sold = false;\n    bool public paid = false;\n    \n    mapping(address => uint) pending_refunds; /// funds of bidders, implementing withdrawal pattern\n\n    event SoldByBuyout(address, uint);\n    event Sold(address, uint);\n    event Unsold();\n    event OfferOutbid(address);\n    event WithdrawalExecuted(address, uint);\n    \n    modifier when_auction_is_open() {\n            require(block.number >= start_time && start_time+duration >= block.number); _;\n    }\n    \n    modifier when_auction_is_close_OR_sold() {\n            require(block.number > start_time+duration || sold); _;\n    }\n\n    modifier when_offer_outbid() {\n        require(pending_refunds[msg.sender] > 0); _;\n    }\n    \n    modifier not_the_seller() {\n        require(seller != msg.sender); _;\n    }\n    \n    ///modifier only_the_seller() {\n    ///    require(seller == msg.sender); _;\n    ///}\n    \n    constructor (uint _duration, uint8 _min_increment, uint _buyout_price, uint _reserve_price, uint _bid_expiration) public {\n        require(_min_increment >= 1 && _min_increment <= 100);\n        require(_buyout_price > _reserve_price);\n        require(_buyout_price > 0);\n        require( _reserve_price > 0);\n        \n        bid_expiration = _bid_expiration;\n        min_increment = _min_increment;\n        buyout_price = _buyout_price;\n        reserve_price = _reserve_price;\n        \n        duration = _duration; /// how many blocks until auction expiration \n        end = start+duration;\n\n        emit LogAuctionStarting(start, end);\n    }\n    \n    function buy_now() public payable when_auction_is_open not_the_seller {\n        require(sold == false);\n        require(highest_bid == 0);\n        require(msg.value >= buyout_price); /// maybe equal?\n        \n        sold = true;\n        highest_bidder = msg.sender;\n        highest_bid = msg.value;\n        \n        emit SoldByBuyout(msg.sender, buyout_price);\n    }\n    \n    function bid() public payable when_auction_is_open not_the_seller {\n        require(msg.sender != highest_bidder);\n        \n        if(highest_bid > 0 && bid_block+bid_expiration < block.number) {\n            sold = true;\n            emit Sold(highest_bidder, highest_bid);\n        }\n        require(sold == false);\n        \n        if(highest_bid == 0) { /// first bid\n            require(msg.value >= reserve_price);\n            \n            highest_bid = msg.value;\n            highest_bidder = msg.sender;\n            bid_block = block.number;\n        }\n        else {\n            uint increment = highest_bid*min_increment/100;\n            require(msg.value >= highest_bid + increment);\n            \n            address payable refund_address = highest_bidder;\n            uint refund = highest_bid;\n            \n            highest_bid = msg.value;\n            highest_bidder = msg.sender;\n            bid_block = block.number;\n            \n            pending_refunds[refund_address] = refund;\n            \n            emit LogHighestBid(msg.sender, msg.value, refund);\n        }\n    }\n    \n    function finalize() public when_auction_is_close_OR_sold {\n        require(paid == false);\n        require(highest_bidder == msg.sender || seller == msg.sender);\n        \n        paid = true;\n        if(!sold) \n            emit Unsold();\n        else\n            seller.transfer(highest_bid);\n    }\n\n    function withdrawal() public when_offer_outbid {\n        uint refund = pending_refunds[msg.sender];\n        pending_refunds[msg.sender] = 0;\n        \n        emit WithdrawalExecuted(msg.sender, refund);\n        \n        msg.sender.transfer(refund);\n    }\n}\n",
  "sourcePath": "/home/bongi/Scrivania/Smart-Auctions/contracts/EnglishAuction.sol",
  "compiler": {
    "name": "solc",
    "version": "0.5.8+commit.23d335f2.Emscripten.clang"
  },
  "schemaVersion": "3.0.10",
  "updatedAt": "2019-06-11T15:24:22.330Z",
  "devdoc": {
    "methods": {}
  },
  "userdoc": {
    "methods": {
      "constructor": "modifier only_the_seller() {    require(seller == msg.sender); _; }"
    }
  }
}