{
  "contractName": "EnglishAuction",
  "abi": [
    {
      "constant": true,
      "inputs": [],
      "name": "sold",
      "outputs": [
        {
          "name": "",
          "type": "bool"
        }
      ],
      "payable": false,
      "stateMutability": "view",
      "type": "function"
    },
    {
      "constant": true,
      "inputs": [],
      "name": "duration",
      "outputs": [
        {
          "name": "",
          "type": "uint256"
        }
      ],
      "payable": false,
      "stateMutability": "view",
      "type": "function"
    },
    {
      "constant": true,
      "inputs": [],
      "name": "paid",
      "outputs": [
        {
          "name": "",
          "type": "bool"
        }
      ],
      "payable": false,
      "stateMutability": "view",
      "type": "function"
    },
    {
      "constant": true,
      "inputs": [],
      "name": "reserve_price",
      "outputs": [
        {
          "name": "",
          "type": "uint256"
        }
      ],
      "payable": false,
      "stateMutability": "view",
      "type": "function"
    },
    {
      "constant": true,
      "inputs": [],
      "name": "min_increment",
      "outputs": [
        {
          "name": "",
          "type": "uint8"
        }
      ],
      "payable": false,
      "stateMutability": "view",
      "type": "function"
    },
    {
      "constant": true,
      "inputs": [],
      "name": "bid_expiration",
      "outputs": [
        {
          "name": "",
          "type": "uint256"
        }
      ],
      "payable": false,
      "stateMutability": "view",
      "type": "function"
    },
    {
      "constant": true,
      "inputs": [],
      "name": "start_time",
      "outputs": [
        {
          "name": "",
          "type": "uint256"
        }
      ],
      "payable": false,
      "stateMutability": "view",
      "type": "function"
    },
    {
      "constant": true,
      "inputs": [],
      "name": "bid_block",
      "outputs": [
        {
          "name": "",
          "type": "uint256"
        }
      ],
      "payable": false,
      "stateMutability": "view",
      "type": "function"
    },
    {
      "constant": true,
      "inputs": [],
      "name": "highest_bidder",
      "outputs": [
        {
          "name": "",
          "type": "address"
        }
      ],
      "payable": false,
      "stateMutability": "view",
      "type": "function"
    },
    {
      "constant": true,
      "inputs": [],
      "name": "buyout_price",
      "outputs": [
        {
          "name": "",
          "type": "uint256"
        }
      ],
      "payable": false,
      "stateMutability": "view",
      "type": "function"
    },
    {
      "constant": true,
      "inputs": [],
      "name": "highest_bid",
      "outputs": [
        {
          "name": "",
          "type": "uint256"
        }
      ],
      "payable": false,
      "stateMutability": "view",
      "type": "function"
    },
    {
      "inputs": [
        {
          "name": "_duration",
          "type": "uint256"
        },
        {
          "name": "_min_increment",
          "type": "uint8"
        },
        {
          "name": "_buyout_price",
          "type": "uint256"
        },
        {
          "name": "_reserve_price",
          "type": "uint256"
        },
        {
          "name": "_bid_expiration",
          "type": "uint256"
        }
      ],
      "payable": false,
      "stateMutability": "nonpayable",
      "type": "constructor"
    },
    {
      "anonymous": false,
      "inputs": [
        {
          "indexed": false,
          "name": "",
          "type": "uint256"
        }
      ],
      "name": "AuctionStarting",
      "type": "event"
    },
    {
      "anonymous": false,
      "inputs": [
        {
          "indexed": false,
          "name": "",
          "type": "address"
        },
        {
          "indexed": false,
          "name": "",
          "type": "uint256"
        }
      ],
      "name": "SoldByBuyout",
      "type": "event"
    },
    {
      "anonymous": false,
      "inputs": [
        {
          "indexed": false,
          "name": "",
          "type": "address"
        },
        {
          "indexed": false,
          "name": "",
          "type": "uint256"
        }
      ],
      "name": "Sold",
      "type": "event"
    },
    {
      "anonymous": false,
      "inputs": [],
      "name": "Unsold",
      "type": "event"
    },
    {
      "anonymous": false,
      "inputs": [
        {
          "indexed": false,
          "name": "",
          "type": "address"
        }
      ],
      "name": "OfferOutbid",
      "type": "event"
    },
    {
      "anonymous": false,
      "inputs": [
        {
          "indexed": false,
          "name": "",
          "type": "address"
        },
        {
          "indexed": false,
          "name": "",
          "type": "uint256"
        }
      ],
      "name": "WithdrawalExecuted",
      "type": "event"
    },
    {
      "constant": false,
      "inputs": [],
      "name": "buy_now",
      "outputs": [],
      "payable": true,
      "stateMutability": "payable",
      "type": "function"
    },
    {
      "constant": false,
      "inputs": [],
      "name": "bid",
      "outputs": [],
      "payable": true,
      "stateMutability": "payable",
      "type": "function"
    },
    {
      "constant": false,
      "inputs": [],
      "name": "finalize",
      "outputs": [],
      "payable": false,
      "stateMutability": "nonpayable",
      "type": "function"
    },
    {
      "constant": false,
      "inputs": [],
      "name": "withdrawal",
      "outputs": [],
      "payable": false,
      "stateMutability": "nonpayable",
      "type": "function"
    }
  ],
  "bytecode": "0x6080604052336000806101000a81548173ffffffffffffffffffffffffffffffffffffffff021916908373ffffffffffffffffffffffffffffffffffffffff16021790555060014301600555600060085560006009556000600a60006101000a81548160ff0219169083151502179055506000600a60016101000a81548160ff02191690831515021790555034801561009757600080fd5b5060405160a080610e19833981018060405260a08110156100b757600080fd5b81019080805190602001909291908051906020019092919080519060200190929190805190602001909291908051906020019092919050505060018460ff1610158015610108575060648460ff1611155b61011157600080fd5b81831161011d57600080fd5b6000831161012a57600080fd5b6000821161013757600080fd5b8060018190555083600260006101000a81548160ff021916908360ff1602179055508260038190555081600481905550846006819055507f99317feb3710a9d72c0e33f25bd55a144c3fdf87f8e7ea7a6dc5c670b99c560b6006546040518082815260200191505060405180910390a15050505050610c5e806101bb6000396000f3fe6080604052600436106100e85760003560e01c80637afc2e501161008a578063bd9215f411610059578063bd9215f41461027e578063cf0bdecc146102d5578063d4e9329214610300578063e5c6009114610317576100e8565b80637afc2e50146101f3578063834ee4171461021e578063969a00e014610249578063b4d5be5f14610253576100e8565b8063295b4e17116100c6578063295b4e17146101515780634bb278f31461018057806368dc824d14610197578063721f57be146101c2576100e8565b806302c7e7af146100ed5780630fb5a6b41461011c5780631998aeef14610147575b600080fd5b3480156100f957600080fd5b50610102610342565b604051808215151515815260200191505060405180910390f35b34801561012857600080fd5b50610131610355565b6040518082815260200191505060405180910390f35b61014f61035b565b005b34801561015d57600080fd5b506101666106e6565b604051808215151515815260200191505060405180910390f35b34801561018c57600080fd5b506101956106f9565b005b3480156101a357600080fd5b506101ac6108c0565b6040518082815260200191505060405180910390f35b3480156101ce57600080fd5b506101d76108c6565b604051808260ff1660ff16815260200191505060405180910390f35b3480156101ff57600080fd5b506102086108d9565b6040518082815260200191505060405180910390f35b34801561022a57600080fd5b506102336108df565b6040518082815260200191505060405180910390f35b6102516108e5565b005b34801561025f57600080fd5b50610268610a70565b6040518082815260200191505060405180910390f35b34801561028a57600080fd5b50610293610a76565b604051808273ffffffffffffffffffffffffffffffffffffffff1673ffffffffffffffffffffffffffffffffffffffff16815260200191505060405180910390f35b3480156102e157600080fd5b506102ea610a9c565b6040518082815260200191505060405180910390f35b34801561030c57600080fd5b50610315610aa2565b005b34801561032357600080fd5b5061032c610c2c565b6040518082815260200191505060405180910390f35b600a60009054906101000a900460ff1681565b60065481565b60055443101580156103735750436006546005540110155b61037c57600080fd5b3373ffffffffffffffffffffffffffffffffffffffff166000809054906101000a900473ffffffffffffffffffffffffffffffffffffffff1673ffffffffffffffffffffffffffffffffffffffff1614156103d657600080fd5b600760009054906101000a900473ffffffffffffffffffffffffffffffffffffffff1673ffffffffffffffffffffffffffffffffffffffff163373ffffffffffffffffffffffffffffffffffffffff16141561043157600080fd5b600060085411801561044857504360015460095401105b156104f8576001600a60006101000a81548160ff0219169083151502179055507fae92ab4b6f8f401ead768d3273e6bb937a13e39827d19c6376e8fd4512a05d9a600760009054906101000a900473ffffffffffffffffffffffffffffffffffffffff16600854604051808373ffffffffffffffffffffffffffffffffffffffff1673ffffffffffffffffffffffffffffffffffffffff1681526020018281526020019250505060405180910390a15b60001515600a60009054906101000a900460ff1615151461051857600080fd5b600060085414156105865760045434101561053257600080fd5b3460088190555033600760006101000a81548173ffffffffffffffffffffffffffffffffffffffff021916908373ffffffffffffffffffffffffffffffffffffffff160217905550436009819055506106e4565b60006064600260009054906101000a900460ff1660ff1660085402816105a857fe5b04905080600854013410156105bc57600080fd5b6000600760009054906101000a900473ffffffffffffffffffffffffffffffffffffffff169050600060085490503460088190555033600760006101000a81548173ffffffffffffffffffffffffffffffffffffffff021916908373ffffffffffffffffffffffffffffffffffffffff1602179055504360098190555080600b60008473ffffffffffffffffffffffffffffffffffffffff1673ffffffffffffffffffffffffffffffffffffffff168152602001908152602001600020819055507f6e13c6b2eafaf8e3349a011b62907ddb141c6efcb59270dcc3728f1eddcc351b82604051808273ffffffffffffffffffffffffffffffffffffffff1673ffffffffffffffffffffffffffffffffffffffff16815260200191505060405180910390a15050505b565b600a60019054906101000a900460ff1681565b600654600554014311806107195750600a60009054906101000a900460ff165b61072257600080fd5b60001515600a60019054906101000a900460ff1615151461074257600080fd5b3373ffffffffffffffffffffffffffffffffffffffff16600760009054906101000a900473ffffffffffffffffffffffffffffffffffffffff1673ffffffffffffffffffffffffffffffffffffffff1614806107ea57503373ffffffffffffffffffffffffffffffffffffffff166000809054906101000a900473ffffffffffffffffffffffffffffffffffffffff1673ffffffffffffffffffffffffffffffffffffffff16145b6107f357600080fd5b6001600a60016101000a81548160ff021916908315150217905550600a60009054906101000a900460ff16610853577f7504f4813ca88974fc5fc20478fd51dffc3c4edba302c1f77e786ffea84b3a6060405160405180910390a16108be565b6000809054906101000a900473ffffffffffffffffffffffffffffffffffffffff1673ffffffffffffffffffffffffffffffffffffffff166108fc6008549081150290604051600060405180830381858888f193505050501580156108bc573d6000803e3d6000fd5b505b565b60045481565b600260009054906101000a900460ff1681565b60015481565b60055481565b60055443101580156108fd5750436006546005540110155b61090657600080fd5b3373ffffffffffffffffffffffffffffffffffffffff166000809054906101000a900473ffffffffffffffffffffffffffffffffffffffff1673ffffffffffffffffffffffffffffffffffffffff16141561096057600080fd5b60001515600a60009054906101000a900460ff1615151461098057600080fd5b60006008541461098f57600080fd5b60035434101561099e57600080fd5b6001600a60006101000a81548160ff02191690831515021790555033600760006101000a81548173ffffffffffffffffffffffffffffffffffffffff021916908373ffffffffffffffffffffffffffffffffffffffff160217905550346008819055507fa05d6dd77f30aca16df940cdd5c6a325ef492aeec69ca312a0ec30be14a6a52d33600354604051808373ffffffffffffffffffffffffffffffffffffffff1673ffffffffffffffffffffffffffffffffffffffff1681526020018281526020019250505060405180910390a1565b60095481565b600760009054906101000a900473ffffffffffffffffffffffffffffffffffffffff1681565b60035481565b6000600b60003373ffffffffffffffffffffffffffffffffffffffff1673ffffffffffffffffffffffffffffffffffffffff1681526020019081526020016000205411610aee57600080fd5b6000600b60003373ffffffffffffffffffffffffffffffffffffffff1673ffffffffffffffffffffffffffffffffffffffff1681526020019081526020016000205490506000600b60003373ffffffffffffffffffffffffffffffffffffffff1673ffffffffffffffffffffffffffffffffffffffff168152602001908152602001600020819055507f1131c2afe9ce72c59360d085f89bfdd088fcf4a3c93eec6cc5ff42f5d6b0801f3382604051808373ffffffffffffffffffffffffffffffffffffffff1673ffffffffffffffffffffffffffffffffffffffff1681526020018281526020019250505060405180910390a13373ffffffffffffffffffffffffffffffffffffffff166108fc829081150290604051600060405180830381858888f19350505050158015610c28573d6000803e3d6000fd5b5050565b6008548156fea165627a7a723058208b6720c4318b8a50decea5985a6231a0c548286b794c60fbcd1b539cea83a0460029",
  "source": "pragma solidity >=0.4.22 <0.6.0;\n\ncontract EnglishAuction {\n    \n    /// static after constructor\n    address payable seller = msg.sender;\n    uint public bid_expiration; /// can be smaller?\n    uint8 public min_increment; /// percentual wrt the highest bid\n    uint public buyout_price;\n    uint public reserve_price;\n    uint public start_time = block.number + 1;\n    uint public duration; /// can be smaller?\n    \n    /// auction state\n    address payable public highest_bidder;\n    uint public highest_bid = 0;\n    uint public bid_block = 0;\n    bool public sold = false;\n    bool public paid = false;\n    \n    mapping(address => uint) pending_refunds; /// funds of bidders, implementing withdrawal pattern\n\n    event AuctionStarting(uint);\n    event SoldByBuyout(address, uint);\n    event Sold(address, uint);\n    event Unsold();\n    event OfferOutbid(address);\n    event WithdrawalExecuted(address, uint);\n    \n    modifier when_auction_is_open() {\n            require(block.number >= start_time && start_time+duration >= block.number); _;\n    }\n    \n    modifier when_auction_is_close_OR_sold() {\n            require(block.number > start_time+duration || sold); _;\n    }\n\n    modifier when_offer_outbid() {\n        require(pending_refunds[msg.sender] > 0); _;\n    }\n    \n    modifier not_the_seller() {\n        require(seller != msg.sender); _;\n    }\n    \n    ///modifier only_the_seller() {\n    ///    require(seller == msg.sender); _;\n    ///}\n    \n    constructor (uint _duration, uint8 _min_increment, uint _buyout_price, uint _reserve_price, uint _bid_expiration) public {\n        require(_min_increment >= 1 && _min_increment <= 100);\n        require(_buyout_price > _reserve_price);\n        require(_buyout_price > 0);\n        require( _reserve_price > 0);\n        \n        bid_expiration = _bid_expiration;\n        min_increment = _min_increment;\n        buyout_price = _buyout_price;\n        reserve_price = _reserve_price;\n        \n        duration = _duration; /// how many blocks until auction expiration \n        \n        emit AuctionStarting(duration);\n    }\n    \n    function buy_now() public payable when_auction_is_open not_the_seller {\n        require(sold == false);\n        require(highest_bid == 0);\n        require(msg.value >= buyout_price); /// maybe equal?\n        \n        sold = true;\n        highest_bidder = msg.sender;\n        highest_bid = msg.value;\n        \n        emit SoldByBuyout(msg.sender, buyout_price);\n    }\n    \n    function bid() public payable when_auction_is_open not_the_seller {\n        require(msg.sender != highest_bidder);\n        \n        if(highest_bid > 0 && bid_block+bid_expiration < block.number) {\n            sold = true;\n            emit Sold(highest_bidder, highest_bid);\n        }\n        require(sold == false);\n        \n        if(highest_bid == 0) { /// first bid\n            require(msg.value >= reserve_price);\n            \n            highest_bid = msg.value;\n            highest_bidder = msg.sender;\n            bid_block = block.number;\n        }\n        else {\n            uint increment = highest_bid*min_increment/100;\n            require(msg.value >= highest_bid + increment);\n            \n            address payable refund_address = highest_bidder;\n            uint refund = highest_bid;\n            \n            highest_bid = msg.value;\n            highest_bidder = msg.sender;\n            bid_block = block.number;\n            \n            pending_refunds[refund_address] = refund;\n            \n            emit OfferOutbid(refund_address);\n        }\n    }\n    \n    function finalize() public when_auction_is_close_OR_sold {\n        require(paid == false);\n        require(highest_bidder == msg.sender || seller == msg.sender);\n        \n        paid = true;\n        if(!sold) \n            emit Unsold();\n        else\n            seller.transfer(highest_bid);\n    }\n\n    function withdrawal() public when_offer_outbid {\n        uint refund = pending_refunds[msg.sender];\n        pending_refunds[msg.sender] = 0;\n        \n        emit WithdrawalExecuted(msg.sender, refund);\n        \n        msg.sender.transfer(refund);\n    }\n}\n",
  "sourcePath": "/home/bongi/Scrivania/Smart-Auctions/contracts/EnglishAuction.sol",
  "compiler": {
    "name": "solc",
    "version": "0.5.8+commit.23d335f2.Emscripten.clang"
  },
  "schemaVersion": "3.0.10",
  "updatedAt": "2019-06-07T09:08:43.086Z",
  "devdoc": {
    "methods": {}
  },
  "userdoc": {
    "methods": {
      "constructor": "modifier only_the_seller() {    require(seller == msg.sender); _; }"
    }
  }
}