{
  "contractName": "EnglishAuction",
  "abi": [
    {
      "constant": true,
      "inputs": [],
      "name": "unchallenged_interval",
      "outputs": [
        {
          "name": "",
          "type": "uint256"
        }
      ],
      "payable": false,
      "stateMutability": "view",
      "type": "function"
    },
    {
      "constant": true,
      "inputs": [],
      "name": "min_increment",
      "outputs": [
        {
          "name": "",
          "type": "uint8"
        }
      ],
      "payable": false,
      "stateMutability": "view",
      "type": "function"
    },
    {
      "constant": true,
      "inputs": [],
      "name": "start_time",
      "outputs": [
        {
          "name": "",
          "type": "uint256"
        }
      ],
      "payable": false,
      "stateMutability": "view",
      "type": "function"
    },
    {
      "constant": true,
      "inputs": [],
      "name": "phase",
      "outputs": [
        {
          "name": "",
          "type": "uint8"
        }
      ],
      "payable": false,
      "stateMutability": "view",
      "type": "function"
    },
    {
      "constant": true,
      "inputs": [],
      "name": "bid_block",
      "outputs": [
        {
          "name": "",
          "type": "uint256"
        }
      ],
      "payable": false,
      "stateMutability": "view",
      "type": "function"
    },
    {
      "constant": true,
      "inputs": [],
      "name": "buyout_price",
      "outputs": [
        {
          "name": "",
          "type": "uint256"
        }
      ],
      "payable": false,
      "stateMutability": "view",
      "type": "function"
    },
    {
      "inputs": [
        {
          "name": "_duration",
          "type": "uint256"
        },
        {
          "name": "_min_increment",
          "type": "uint8"
        },
        {
          "name": "_buyout_price",
          "type": "uint256"
        },
        {
          "name": "_reserve_price",
          "type": "uint256"
        },
        {
          "name": "_unchallenged_interval",
          "type": "uint256"
        }
      ],
      "payable": false,
      "stateMutability": "nonpayable",
      "type": "constructor"
    },
    {
      "anonymous": false,
      "inputs": [
        {
          "indexed": false,
          "name": "",
          "type": "address"
        },
        {
          "indexed": false,
          "name": "",
          "type": "uint256"
        }
      ],
      "name": "LogSoldByBuyout",
      "type": "event"
    },
    {
      "anonymous": false,
      "inputs": [
        {
          "indexed": false,
          "name": "",
          "type": "address"
        },
        {
          "indexed": false,
          "name": "",
          "type": "uint256"
        }
      ],
      "name": "LogWithdrawalExecuted",
      "type": "event"
    },
    {
      "anonymous": false,
      "inputs": [
        {
          "indexed": false,
          "name": "",
          "type": "string"
        }
      ],
      "name": "LogPhaseTransition",
      "type": "event"
    },
    {
      "anonymous": false,
      "inputs": [
        {
          "indexed": false,
          "name": "",
          "type": "uint256"
        },
        {
          "indexed": false,
          "name": "",
          "type": "uint256"
        }
      ],
      "name": "LogAuctionStarting",
      "type": "event"
    },
    {
      "anonymous": false,
      "inputs": [
        {
          "indexed": false,
          "name": "",
          "type": "address"
        },
        {
          "indexed": false,
          "name": "",
          "type": "uint256"
        },
        {
          "indexed": false,
          "name": "",
          "type": "uint256"
        }
      ],
      "name": "LogHighestBid",
      "type": "event"
    },
    {
      "anonymous": false,
      "inputs": [],
      "name": "LogUnsold",
      "type": "event"
    },
    {
      "anonymous": false,
      "inputs": [
        {
          "indexed": false,
          "name": "",
          "type": "address"
        },
        {
          "indexed": false,
          "name": "",
          "type": "uint256"
        }
      ],
      "name": "LogSold",
      "type": "event"
    },
    {
      "anonymous": false,
      "inputs": [
        {
          "indexed": false,
          "name": "",
          "type": "address"
        }
      ],
      "name": "LogEscrowCreated",
      "type": "event"
    },
    {
      "constant": false,
      "inputs": [
        {
          "name": "_phase",
          "type": "uint8"
        }
      ],
      "name": "nextPhase",
      "outputs": [],
      "payable": false,
      "stateMutability": "nonpayable",
      "type": "function"
    },
    {
      "constant": false,
      "inputs": [],
      "name": "buy_now",
      "outputs": [],
      "payable": true,
      "stateMutability": "payable",
      "type": "function"
    },
    {
      "constant": false,
      "inputs": [],
      "name": "bid",
      "outputs": [],
      "payable": true,
      "stateMutability": "payable",
      "type": "function"
    },
    {
      "constant": false,
      "inputs": [],
      "name": "finalize",
      "outputs": [],
      "payable": false,
      "stateMutability": "nonpayable",
      "type": "function"
    },
    {
      "constant": false,
      "inputs": [],
      "name": "withdrawal",
      "outputs": [],
      "payable": false,
      "stateMutability": "nonpayable",
      "type": "function"
    }
  ],
  "bytecode": "0x608060405233600560016101000a81548173ffffffffffffffffffffffffffffffffffffffff021916908373ffffffffffffffffffffffffffffffffffffffff160217905550436009556000600a60006101000a81548160ff0219169083600381111561006857fe5b021790555034801561007957600080fd5b5060405160a080612024833981018060405260a081101561009957600080fd5b81019080805190602001909291908051906020019092919080519060200190929190805190602001909291908051906020019092919050505060018460ff16101580156100ea575060648460ff1611155b6100f357600080fd5b8183116100ff57600080fd5b6000831161010c57600080fd5b6000821161011957600080fd5b6000851161012657600080fd5b8060068190555083600760006101000a81548160ff021916908360ff160217905550826008819055508160008190555084600154016002819055507fc2c19c52f2e656ec534b32dc921dfde2ad111398350b58fbfb04ec93640e9ecd600154600254604051808381526020018281526020019250505060405180910390a15050505050611e6c806101b86000396000f3fe60806040526004361061009c5760003560e01c8063969a00e011610064578063969a00e014610149578063b1c9fe6e14610153578063b4d5be5f1461018c578063cf0bdecc146101b7578063d4e93292146101e2578063ff11250e146101f95761009c565b80631998aeef146100a15780634bb278f3146100ab5780636c629485146100c2578063721f57be146100ed578063834ee4171461011e575b600080fd5b6100a9610237565b005b3480156100b757600080fd5b506100c0610853565b005b3480156100ce57600080fd5b506100d7610cf3565b6040518082815260200191505060405180910390f35b3480156100f957600080fd5b50610102610cf9565b604051808260ff1660ff16815260200191505060405180910390f35b34801561012a57600080fd5b50610133610d0c565b6040518082815260200191505060405180910390f35b610151610d12565b005b34801561015f57600080fd5b506101686110b8565b6040518082600381111561017857fe5b60ff16815260200191505060405180910390f35b34801561019857600080fd5b506101a16110cb565b6040518082815260200191505060405180910390f35b3480156101c357600080fd5b506101cc6110d1565b6040518082815260200191505060405180910390f35b3480156101ee57600080fd5b506101f76110d7565b005b34801561020557600080fd5b506102356004803603602081101561021c57600080fd5b81019080803560ff1690602001909291905050506112bc565b005b600560009054906101000a900460ff16610463576001600381111561025857fe5b600a60009054906101000a900460ff16600381111561027357fe5b14801561029157506002544311806102905750600654600b540143115b5b1561034e576002600a60006101000a81548160ff021916908360038111156102b557fe5b02179055507fb80765a4af26c11eaf88144d0d807ee43da5f4ce728d183207437dcb463761c9600360009054906101000a900473ffffffffffffffffffffffffffffffffffffffff16600454604051808373ffffffffffffffffffffffffffffffffffffffff1673ffffffffffffffffffffffffffffffffffffffff1681526020018281526020019250505060405180910390a1610462565b6000600381111561035b57fe5b600a60009054906101000a900460ff16600381111561037657fe5b148015610384575060025443115b15610461576003600a60006101000a81548160ff021916908360038111156103a857fe5b02179055507ff41b3b7205d6f8c65b2e34682ea23cd386f7a792ac15527c092c9b5ebea807b56103e6600a60009054906101000a900460ff166113ae565b6040518080602001828103825283818151815260200191508051906020019080838360005b8381101561042657808201518184015260208101905061040b565b50505050905090810190601f1680156104535780820380516001836020036101000a031916815260200191505b509250505060405180910390a15b5b5b3373ffffffffffffffffffffffffffffffffffffffff16600560019054906101000a900473ffffffffffffffffffffffffffffffffffffffff1673ffffffffffffffffffffffffffffffffffffffff1614156104be57600080fd5b600060038111156104cb57fe5b600a60009054906101000a900460ff1660038111156104e657fe5b14806105175750600160038111156104fa57fe5b600a60009054906101000a900460ff16600381111561051557fe5b145b61052057600080fd5b600360009054906101000a900473ffffffffffffffffffffffffffffffffffffffff1673ffffffffffffffffffffffffffffffffffffffff163373ffffffffffffffffffffffffffffffffffffffff16141561057b57600080fd5b6000600381111561058857fe5b600a60009054906101000a900460ff1660038111156105a357fe5b14156106e3576000543410156105b857600080fd5b3460048190555033600360006101000a81548173ffffffffffffffffffffffffffffffffffffffff021916908373ffffffffffffffffffffffffffffffffffffffff16021790555043600b819055506001600a60006101000a81548160ff0219169083600381111561062657fe5b02179055507ff41b3b7205d6f8c65b2e34682ea23cd386f7a792ac15527c092c9b5ebea807b5610664600a60009054906101000a900460ff166113ae565b6040518080602001828103825283818151815260200191508051906020019080838360005b838110156106a4578082015181840152602081019050610689565b50505050905090810190601f1680156106d15780820380516001836020036101000a031916815260200191505b509250505060405180910390a1610851565b60006064600760009054906101000a900460ff1660ff16600454028161070557fe5b049050806004540134101561071957600080fd5b6000600360009054906101000a900473ffffffffffffffffffffffffffffffffffffffff169050600060045490503460048190555033600360006101000a81548173ffffffffffffffffffffffffffffffffffffffff021916908373ffffffffffffffffffffffffffffffffffffffff16021790555043600b8190555080600c60008473ffffffffffffffffffffffffffffffffffffffff1673ffffffffffffffffffffffffffffffffffffffff168152602001908152602001600020819055507f2fdfae8f739f39313524d099053770ab9602ed675bd8e847776a4108ee4673c4333483604051808473ffffffffffffffffffffffffffffffffffffffff1673ffffffffffffffffffffffffffffffffffffffff168152602001838152602001828152602001935050505060405180910390a15050505b565b600560009054906101000a900460ff16610a7f576001600381111561087457fe5b600a60009054906101000a900460ff16600381111561088f57fe5b1480156108ad57506002544311806108ac5750600654600b540143115b5b1561096a576002600a60006101000a81548160ff021916908360038111156108d157fe5b02179055507fb80765a4af26c11eaf88144d0d807ee43da5f4ce728d183207437dcb463761c9600360009054906101000a900473ffffffffffffffffffffffffffffffffffffffff16600454604051808373ffffffffffffffffffffffffffffffffffffffff1673ffffffffffffffffffffffffffffffffffffffff1681526020018281526020019250505060405180910390a1610a7e565b6000600381111561097757fe5b600a60009054906101000a900460ff16600381111561099257fe5b1480156109a0575060025443115b15610a7d576003600a60006101000a81548160ff021916908360038111156109c457fe5b02179055507ff41b3b7205d6f8c65b2e34682ea23cd386f7a792ac15527c092c9b5ebea807b5610a02600a60009054906101000a900460ff166113ae565b6040518080602001828103825283818151815260200191508051906020019080838360005b83811015610a42578082015181840152602081019050610a27565b50505050905090810190601f168015610a6f5780820380516001836020036101000a031916815260200191505b509250505060405180910390a15b5b5b6002806003811115610a8d57fe5b600a60009054906101000a900460ff166003811115610aa857fe5b14610ab257600080fd5b3373ffffffffffffffffffffffffffffffffffffffff16600360009054906101000a900473ffffffffffffffffffffffffffffffffffffffff1673ffffffffffffffffffffffffffffffffffffffff161480610b5b57503373ffffffffffffffffffffffffffffffffffffffff16600560019054906101000a900473ffffffffffffffffffffffffffffffffffffffff1673ffffffffffffffffffffffffffffffffffffffff16145b610b6457600080fd5b6003600a60006101000a81548160ff02191690836003811115610b8357fe5b02179055506000600454600560019054906101000a900473ffffffffffffffffffffffffffffffffffffffff16600360009054906101000a900473ffffffffffffffffffffffffffffffffffffffff16600560009054906101000a900460ff166032604051610bf1906114c9565b808573ffffffffffffffffffffffffffffffffffffffff1673ffffffffffffffffffffffffffffffffffffffff1681526020018473ffffffffffffffffffffffffffffffffffffffff1673ffffffffffffffffffffffffffffffffffffffff168152602001831515151581526020018281526020019450505050506040518091039082f080158015610c87573d6000803e3d6000fd5b50905090507fd404854b721b135520ad75713dbdfe002c7c50738f06d4f1e40d22c5e8c85ec081604051808273ffffffffffffffffffffffffffffffffffffffff1673ffffffffffffffffffffffffffffffffffffffff16815260200191505060405180910390a15050565b60065481565b600760009054906101000a900460ff1681565b60095481565b600560009054906101000a900460ff16610f3e5760016003811115610d3357fe5b600a60009054906101000a900460ff166003811115610d4e57fe5b148015610d6c5750600254431180610d6b5750600654600b540143115b5b15610e29576002600a60006101000a81548160ff02191690836003811115610d9057fe5b02179055507fb80765a4af26c11eaf88144d0d807ee43da5f4ce728d183207437dcb463761c9600360009054906101000a900473ffffffffffffffffffffffffffffffffffffffff16600454604051808373ffffffffffffffffffffffffffffffffffffffff1673ffffffffffffffffffffffffffffffffffffffff1681526020018281526020019250505060405180910390a1610f3d565b60006003811115610e3657fe5b600a60009054906101000a900460ff166003811115610e5157fe5b148015610e5f575060025443115b15610f3c576003600a60006101000a81548160ff02191690836003811115610e8357fe5b02179055507ff41b3b7205d6f8c65b2e34682ea23cd386f7a792ac15527c092c9b5ebea807b5610ec1600a60009054906101000a900460ff166113ae565b6040518080602001828103825283818151815260200191508051906020019080838360005b83811015610f01578082015181840152602081019050610ee6565b50505050905090810190601f168015610f2e5780820380516001836020036101000a031916815260200191505b509250505060405180910390a15b5b5b6000806003811115610f4c57fe5b600a60009054906101000a900460ff166003811115610f6757fe5b14610f7157600080fd5b3373ffffffffffffffffffffffffffffffffffffffff16600560019054906101000a900473ffffffffffffffffffffffffffffffffffffffff1673ffffffffffffffffffffffffffffffffffffffff161415610fcc57600080fd5b600854803414610fdb57600080fd5b6002600a60006101000a81548160ff02191690836003811115610ffa57fe5b021790555033600360006101000a81548173ffffffffffffffffffffffffffffffffffffffff021916908373ffffffffffffffffffffffffffffffffffffffff160217905550346004819055507ffbe455c09b5470d697ff3af58e6b457c5a2529ba56f7e9ce2ac83c9bfc8a9af533600854604051808373ffffffffffffffffffffffffffffffffffffffff1673ffffffffffffffffffffffffffffffffffffffff1681526020018281526020019250505060405180910390a15050565b600a60009054906101000a900460ff1681565b600b5481565b60085481565b6000600c60003373ffffffffffffffffffffffffffffffffffffffff1673ffffffffffffffffffffffffffffffffffffffff168152602001908152602001600020541161112357600080fd5b600360009054906101000a900473ffffffffffffffffffffffffffffffffffffffff1673ffffffffffffffffffffffffffffffffffffffff163373ffffffffffffffffffffffffffffffffffffffff16141561117e57600080fd5b6000600c60003373ffffffffffffffffffffffffffffffffffffffff1673ffffffffffffffffffffffffffffffffffffffff1681526020019081526020016000205490506000600c60003373ffffffffffffffffffffffffffffffffffffffff1673ffffffffffffffffffffffffffffffffffffffff168152602001908152602001600020819055507f0ca2de3b9985dd5e3a15eb3ff4b076383d8330f05ed89abc482e993290bf5ed53382604051808373ffffffffffffffffffffffffffffffffffffffff1673ffffffffffffffffffffffffffffffffffffffff1681526020018281526020019250505060405180910390a13373ffffffffffffffffffffffffffffffffffffffff166108fc829081150290604051600060405180830381858888f193505050501580156112b8573d6000803e3d6000fd5b5050565b600560009054906101000a900460ff166112d557600080fd5b80600a60006101000a81548160ff021916908360038111156112f357fe5b02179055507ff41b3b7205d6f8c65b2e34682ea23cd386f7a792ac15527c092c9b5ebea807b5611331600a60009054906101000a900460ff166113ae565b6040518080602001828103825283818151815260200191508051906020019080838360005b83811015611371578082015181840152602081019050611356565b50505050905090810190601f16801561139e5780820380516001836020036101000a031916815260200191505b509250505060405180910390a150565b6060600060038111156113bd57fe5b8260038111156113c957fe5b141561140c576040518060400160405280600d81526020017f537461727465642070686173650000000000000000000000000000000000000081525090506114c4565b6001600381111561141957fe5b82600381111561142557fe5b1415611468576040518060400160405280601181526020017f426964526563656976656420706861736500000000000000000000000000000081525090506114c4565b60038081111561147457fe5b82600381111561148057fe5b14156114c3576040518060400160405280600e81526020017f46696e697368656420706861736500000000000000000000000000000000000081525090506114c4565b5b919050565b61096a806114d78339019056fe60806040524360015560405160808061096a8339810180604052608081101561002757600080fd5b81019080805190602001909291908051906020019092919080519060200190929190805190602001909291905050508273ffffffffffffffffffffffffffffffffffffffff168473ffffffffffffffffffffffffffffffffffffffff16141561008f57600080fd5b6000341161009c57600080fd5b83600360006101000a81548173ffffffffffffffffffffffffffffffffffffffff021916908373ffffffffffffffffffffffffffffffffffffffff16021790555082600460006101000a81548173ffffffffffffffffffffffffffffffffffffffff021916908373ffffffffffffffffffffffffffffffffffffffff16021790555081600760006101000a81548160ff021916908315150217905550806001540160028190555050505050610814806101566000396000f3fe608060405234801561001057600080fd5b506004361061007d5760003560e01c80636923d1591161005b5780636923d15914610199578063887199c7146101a3578063b69ef8a8146101ad578063c89f2ce4146101cb5761007d565b80631aebd6d514610082578063303a0e6f1461013d5780633795b0af1461016b575b600080fd5b61013b6004803603602081101561009857600080fd5b81019080803590602001906401000000008111156100b557600080fd5b8201836020820111156100c757600080fd5b803590602001918460018302840111640100000000831117156100e957600080fd5b91908080601f016020809104026020016040519081016040528093929190818152602001838380828437600081840152601f19601f8201169050808301925050505050505091929192905050506101e9565b005b6101696004803603602081101561015357600080fd5b810190808035906020019092919050505061029e565b005b6101976004803603602081101561018157600080fd5b81019080803590602001909291905050506103f5565b005b6101a1610468565b005b6101ab6105ae565b005b6101b5610705565b6040518082815260200191505060405180910390f35b6101d361073d565b6040518082815260200191505060405180910390f35b600060068054600181600116156101000203166002900490501415801561021257506000815114155b61021b57600080fd5b600360009054906101000a900473ffffffffffffffffffffffffffffffffffffffff1673ffffffffffffffffffffffffffffffffffffffff163373ffffffffffffffffffffffffffffffffffffffff161461027557600080fd5b60025443111561028457600080fd5b806006908051906020019061029a929190610743565b5050565b600760019054906101000a900460ff16156102b857600080fd5b600360009054906101000a900473ffffffffffffffffffffffffffffffffffffffff1673ffffffffffffffffffffffffffffffffffffffff163373ffffffffffffffffffffffffffffffffffffffff1614801561031a57506000602060ff1614155b61032357600080fd5b60025443111561033257600080fd5b60008160405160200180828152602001915050604051602081830303815290604052805190602001209050600554811461036b57600080fd5b6001600760016101000a81548160ff021916908315150217905550600360009054906101000a900473ffffffffffffffffffffffffffffffffffffffff1673ffffffffffffffffffffffffffffffffffffffff166108fc6000549081150290604051600060405180830381858888f193505050501580156103f0573d6000803e3d6000fd5b505050565b60025443111561040457600080fd5b600460009054906101000a900473ffffffffffffffffffffffffffffffffffffffff1673ffffffffffffffffffffffffffffffffffffffff163373ffffffffffffffffffffffffffffffffffffffff161461045e57600080fd5b8060058190555050565b600254431161047657600080fd5b600060068054600181600116156101000203166002900490501161049957600080fd5b600360009054906101000a900473ffffffffffffffffffffffffffffffffffffffff1673ffffffffffffffffffffffffffffffffffffffff163373ffffffffffffffffffffffffffffffffffffffff16146104f357600080fd5b600760019054906101000a900460ff1615801561051d5750600760029054906101000a900460ff16155b61052657600080fd5b6001600760016101000a81548160ff021916908315150217905550600360009054906101000a900473ffffffffffffffffffffffffffffffffffffffff1673ffffffffffffffffffffffffffffffffffffffff166108fc6000549081150290604051600060405180830381858888f193505050501580156105ab573d6000803e3d6000fd5b50565b60025443116105bc57600080fd5b60006006805460018160011615610100020316600290049050146105df57600080fd5b600460009054906101000a900473ffffffffffffffffffffffffffffffffffffffff1673ffffffffffffffffffffffffffffffffffffffff163373ffffffffffffffffffffffffffffffffffffffff161461063957600080fd5b6000602060ff161161064a57600080fd5b600760029054906101000a900460ff161580156106745750600760019054906101000a900460ff16155b61067d57600080fd5b6001600760026101000a81548160ff021916908315150217905550600460009054906101000a900473ffffffffffffffffffffffffffffffffffffffff1673ffffffffffffffffffffffffffffffffffffffff166108fc6000549081150290604051600060405180830381858888f19350505050158015610702573d6000803e3d6000fd5b50565b6000600760009054906101000a900460ff1661072057600080fd5b3073ffffffffffffffffffffffffffffffffffffffff1631905090565b60005481565b828054600181600116156101000203166002900490600052602060002090601f016020900481019282601f1061078457805160ff19168380011785556107b2565b828001600101855582156107b2579182015b828111156107b1578251825591602001919060010190610796565b5b5090506107bf91906107c3565b5090565b6107e591905b808211156107e15760008160009055506001016107c9565b5090565b9056fea165627a7a72305820f397b1ca6e61cc8ad431ffe5e3af7b7b56fca226772b07fd71cbf181363ab53b0029a165627a7a72305820c7104574746480200d8695459232bafb72de478c8b137cf0bfdc8d3e92d8dae40029",
  "source": "pragma solidity >=0.4.22 <0.6.0;\n\nimport \"./Auction.sol\";\nimport \"./Escrow.sol\";\n\ncontract EnglishAuction is Auction {\n    \n    enum Phases {\n        Started,\n        BidReceived,\n        Sold,\n        Finished\n    }\n    /// static after constructor\n    address payable seller = msg.sender;\n    uint public unchallenged_interval; /// can be smaller?\n    uint8 public min_increment; /// percentual wrt the highest bid\n    uint public buyout_price;\n    uint public start_time = block.number;\n\n    /// auction state\n    Phases public phase = Phases.Started;\n    uint public bid_block;\n    \n    mapping(address => uint) pending_refunds; /// funds of bidders, implementing withdrawal pattern\n\n    event LogSoldByBuyout(address, uint);\n    event LogWithdrawalExecuted(address, uint);\n    \n    modifier blockTimedTransition {\n        if(!debug) {\n            if(phase == Phases.BidReceived && (block.number > end || block.number > bid_block+unchallenged_interval)) {\n                phase = Phases.Sold; \n                emit LogSold(highest_bidder, highest_bid);\n            }\n            else if(phase == Phases.Started && block.number > end) {\n                phase = Phases.Finished;\n                emit LogPhaseTransition(phaseToString(phase));\n            }\n        }\n        _;\n    }\n    \n    modifier duringPhase(Phases _phase) {\n        require(phase == _phase); _;\n    }\n\n    modifier has_pending_refunds() {\n        require(pending_refunds[msg.sender] > 0); _;\n    }\n    \n    modifier not_the_seller() {\n        require(seller != msg.sender); _;\n    }\n    \n    function nextPhase(Phases _phase) public {\n        require(debug);\n        phase = _phase;\n        emit LogPhaseTransition(phaseToString(phase));\n    }\n    \n    function phaseToString(Phases _phase) internal pure returns (string memory) {\n        if(_phase == Phases.Started) return \"Started phase\";\n        if(_phase == Phases.BidReceived) return \"BidReceived phase\";\n        if(_phase == Phases.Finished) return \"Finished phase\";\n    }\n    \n    constructor (uint _duration, uint8 _min_increment, uint _buyout_price, uint _reserve_price, \n                    uint _unchallenged_interval) public {\n        require(_min_increment >= 1 && _min_increment <= 100);\n        require(_buyout_price > _reserve_price);\n        require(_buyout_price > 0);\n        require( _reserve_price > 0);\n        require(_duration > 0);\n        \n        unchallenged_interval = _unchallenged_interval;\n        min_increment = _min_increment;\n        buyout_price = _buyout_price;\n        reserve_price = _reserve_price;\n        \n        end = start+_duration;\n\n        emit LogAuctionStarting(start, end);\n    }\n    \n    function buy_now() public payable blockTimedTransition duringPhase(Phases.Started) not_the_seller costs(buyout_price) {\n\n        phase = Phases.Sold;        \n        \n        highest_bidder = msg.sender;\n        highest_bid = msg.value;\n        \n        emit LogSoldByBuyout(msg.sender, buyout_price);\n    }\n    \n    function bid() public payable blockTimedTransition not_the_seller {\n        require(phase == Phases.Started || phase == Phases.BidReceived);\n        require(msg.sender != highest_bidder);\n        \n        if(phase == Phases.Started) { /// first bid\n            require(msg.value >= reserve_price);\n            \n            highest_bid = msg.value;\n            highest_bidder = msg.sender;\n            bid_block = block.number;\n            \n            phase = Phases.BidReceived;\n            emit LogPhaseTransition(phaseToString(phase));\n        }\n        else {\n            uint increment = highest_bid*min_increment/100;\n            require(msg.value >= highest_bid + increment);\n            \n            address payable refund_address = highest_bidder;\n            uint refund = highest_bid;\n            \n            highest_bid = msg.value;\n            highest_bidder = msg.sender;\n            bid_block = block.number;\n            \n            pending_refunds[refund_address] = refund; /// withdrawal pattern\n            \n            emit LogHighestBid(msg.sender, msg.value, refund);\n        }\n    }\n    \n    function finalize() public blockTimedTransition duringPhase(Phases.Sold) {\n        require(highest_bidder == msg.sender || seller == msg.sender);\n        \n        phase = Phases.Finished;\n        \n        Escrow e = (new Escrow).value(highest_bid)(seller, highest_bidder, debug, 50);\n        emit LogEscrowCreated(address(e));\n        \n\n    }\n\n    function withdrawal() public has_pending_refunds {\n        require(msg.sender != highest_bidder); // superfluo, il suo refund  a 0\n        \n        uint refund = pending_refunds[msg.sender];\n        pending_refunds[msg.sender] = 0;\n        \n        emit LogWithdrawalExecuted(msg.sender, refund);\n        \n        msg.sender.transfer(refund);\n    }\n}\n",
  "sourcePath": "/home/bongi/Scrivania/Smart-Auctions/contracts/EnglishAuction.sol",
  "compiler": {
    "name": "solc",
    "version": "0.5.8+commit.23d335f2.Emscripten.clang"
  },
  "schemaVersion": "3.0.10",
  "updatedAt": "2019-06-15T07:18:29.240Z",
  "devdoc": {
    "methods": {}
  },
  "userdoc": {
    "methods": {}
  }
}