{
  "contractName": "Escrow",
  "abi": [
    {
      "constant": true,
      "inputs": [],
      "name": "funds",
      "outputs": [
        {
          "name": "",
          "type": "uint256"
        }
      ],
      "payable": false,
      "stateMutability": "view",
      "type": "function"
    },
    {
      "inputs": [
        {
          "name": "_seller",
          "type": "address"
        },
        {
          "name": "_buyer",
          "type": "address"
        },
        {
          "name": "_debug",
          "type": "bool"
        },
        {
          "name": "_expiration",
          "type": "uint256"
        }
      ],
      "payable": true,
      "stateMutability": "payable",
      "type": "constructor"
    },
    {
      "constant": false,
      "inputs": [
        {
          "name": "hash",
          "type": "bytes32"
        }
      ],
      "name": "set_hash",
      "outputs": [],
      "payable": false,
      "stateMutability": "nonpayable",
      "type": "function"
    },
    {
      "constant": false,
      "inputs": [
        {
          "name": "en",
          "type": "string"
        }
      ],
      "name": "set_expedition_number",
      "outputs": [],
      "payable": false,
      "stateMutability": "nonpayable",
      "type": "function"
    },
    {
      "constant": false,
      "inputs": [
        {
          "name": "nonce",
          "type": "uint256"
        }
      ],
      "name": "verify_hash",
      "outputs": [],
      "payable": false,
      "stateMutability": "nonpayable",
      "type": "function"
    },
    {
      "constant": false,
      "inputs": [],
      "name": "refund_seller",
      "outputs": [],
      "payable": false,
      "stateMutability": "nonpayable",
      "type": "function"
    },
    {
      "constant": false,
      "inputs": [],
      "name": "refund_buyer",
      "outputs": [],
      "payable": false,
      "stateMutability": "nonpayable",
      "type": "function"
    },
    {
      "constant": true,
      "inputs": [],
      "name": "balance",
      "outputs": [
        {
          "name": "",
          "type": "uint256"
        }
      ],
      "payable": false,
      "stateMutability": "view",
      "type": "function"
    }
  ],
  "bytecode": "0x60806040524360015560405160808061096a8339810180604052608081101561002757600080fd5b81019080805190602001909291908051906020019092919080519060200190929190805190602001909291905050508273ffffffffffffffffffffffffffffffffffffffff168473ffffffffffffffffffffffffffffffffffffffff16141561008f57600080fd5b6000341161009c57600080fd5b83600360006101000a81548173ffffffffffffffffffffffffffffffffffffffff021916908373ffffffffffffffffffffffffffffffffffffffff16021790555082600460006101000a81548173ffffffffffffffffffffffffffffffffffffffff021916908373ffffffffffffffffffffffffffffffffffffffff16021790555081600760006101000a81548160ff021916908315150217905550806001540160028190555050505050610814806101566000396000f3fe608060405234801561001057600080fd5b506004361061007d5760003560e01c80636923d1591161005b5780636923d15914610199578063887199c7146101a3578063b69ef8a8146101ad578063c89f2ce4146101cb5761007d565b80631aebd6d514610082578063303a0e6f1461013d5780633795b0af1461016b575b600080fd5b61013b6004803603602081101561009857600080fd5b81019080803590602001906401000000008111156100b557600080fd5b8201836020820111156100c757600080fd5b803590602001918460018302840111640100000000831117156100e957600080fd5b91908080601f016020809104026020016040519081016040528093929190818152602001838380828437600081840152601f19601f8201169050808301925050505050505091929192905050506101e9565b005b6101696004803603602081101561015357600080fd5b810190808035906020019092919050505061029e565b005b6101976004803603602081101561018157600080fd5b81019080803590602001909291905050506103f5565b005b6101a1610468565b005b6101ab6105ae565b005b6101b5610705565b6040518082815260200191505060405180910390f35b6101d361073d565b6040518082815260200191505060405180910390f35b600060068054600181600116156101000203166002900490501415801561021257506000815114155b61021b57600080fd5b600360009054906101000a900473ffffffffffffffffffffffffffffffffffffffff1673ffffffffffffffffffffffffffffffffffffffff163373ffffffffffffffffffffffffffffffffffffffff161461027557600080fd5b60025443111561028457600080fd5b806006908051906020019061029a929190610743565b5050565b600760019054906101000a900460ff16156102b857600080fd5b600360009054906101000a900473ffffffffffffffffffffffffffffffffffffffff1673ffffffffffffffffffffffffffffffffffffffff163373ffffffffffffffffffffffffffffffffffffffff1614801561031a57506000602060ff1614155b61032357600080fd5b60025443111561033257600080fd5b60008160405160200180828152602001915050604051602081830303815290604052805190602001209050600554811461036b57600080fd5b6001600760016101000a81548160ff021916908315150217905550600360009054906101000a900473ffffffffffffffffffffffffffffffffffffffff1673ffffffffffffffffffffffffffffffffffffffff166108fc6000549081150290604051600060405180830381858888f193505050501580156103f0573d6000803e3d6000fd5b505050565b60025443111561040457600080fd5b600460009054906101000a900473ffffffffffffffffffffffffffffffffffffffff1673ffffffffffffffffffffffffffffffffffffffff163373ffffffffffffffffffffffffffffffffffffffff161461045e57600080fd5b8060058190555050565b600254431161047657600080fd5b600060068054600181600116156101000203166002900490501161049957600080fd5b600360009054906101000a900473ffffffffffffffffffffffffffffffffffffffff1673ffffffffffffffffffffffffffffffffffffffff163373ffffffffffffffffffffffffffffffffffffffff16146104f357600080fd5b600760019054906101000a900460ff1615801561051d5750600760029054906101000a900460ff16155b61052657600080fd5b6001600760016101000a81548160ff021916908315150217905550600360009054906101000a900473ffffffffffffffffffffffffffffffffffffffff1673ffffffffffffffffffffffffffffffffffffffff166108fc6000549081150290604051600060405180830381858888f193505050501580156105ab573d6000803e3d6000fd5b50565b60025443116105bc57600080fd5b60006006805460018160011615610100020316600290049050146105df57600080fd5b600460009054906101000a900473ffffffffffffffffffffffffffffffffffffffff1673ffffffffffffffffffffffffffffffffffffffff163373ffffffffffffffffffffffffffffffffffffffff161461063957600080fd5b6000602060ff161161064a57600080fd5b600760029054906101000a900460ff161580156106745750600760019054906101000a900460ff16155b61067d57600080fd5b6001600760026101000a81548160ff021916908315150217905550600460009054906101000a900473ffffffffffffffffffffffffffffffffffffffff1673ffffffffffffffffffffffffffffffffffffffff166108fc6000549081150290604051600060405180830381858888f19350505050158015610702573d6000803e3d6000fd5b50565b6000600760009054906101000a900460ff1661072057600080fd5b3073ffffffffffffffffffffffffffffffffffffffff1631905090565b60005481565b828054600181600116156101000203166002900490600052602060002090601f016020900481019282601f1061078457805160ff19168380011785556107b2565b828001600101855582156107b2579182015b828111156107b1578251825591602001919060010190610796565b5b5090506107bf91906107c3565b5090565b6107e591905b808211156107e15760008160009055506001016107c9565b5090565b9056fea165627a7a72305820f397b1ca6e61cc8ad431ffe5e3af7b7b56fca226772b07fd71cbf181363ab53b0029",
  "source": "pragma solidity >=0.4.22 <0.6.0;\n\ncontract Escrow {\n\n    uint public funds;\n    uint created = block.number;\n    uint expiration;\n    address payable seller;\n    address payable buyer;\n\n    bytes32 buyer_hash;\n    string expedition_number;\n    \n    bool debug;\n    bool paid;\n    bool refunded;\n\n    constructor(address payable _seller, address payable _buyer, bool _debug, uint _expiration) public payable {\n        require(_seller != _buyer);\n        require(msg.value > 0);\n\n        seller = _seller;\n        buyer = _buyer;\n        \n        debug = _debug;\n        \n        expiration = created+_expiration;\n    }\n    \n    function set_hash(bytes32 hash) public {\n        require(block.number <= expiration);\n        require(msg.sender == buyer);\n        \n        buyer_hash = hash;\n    }\n    \n    function set_expedition_number(string memory en) public {\n        require(bytes(expedition_number).length != 0 && bytes(en).length != 0);\n        require(msg.sender == seller);\n        require(block.number <= expiration);\n        \n        expedition_number = en; /// suppose it is valid\n    }\n    \n    function verify_hash(uint nonce) public {\n        require(!paid);\n        require(msg.sender == seller && buyer_hash.length != 0);\n        require(block.number <= expiration);\n        \n        bytes32 seller_hash = keccak256(abi.encode(nonce));\n        require(seller_hash == buyer_hash);\n        paid = true;\n        seller.transfer(funds);\n    }\n    \n    function refund_seller() public {\n        require(block.number > expiration);\n        require(bytes(expedition_number).length > 0);\n        require(msg.sender == seller);\n        require(!paid && !refunded);\n        \n        paid = true;\n        seller.transfer(funds);\n    }\n    \n    function refund_buyer() public {\n        require(block.number > expiration);\n        require(bytes(expedition_number).length == 0);\n        require(msg.sender == buyer);\n        require(buyer_hash.length > 0);\n        require(!refunded && !paid);\n        \n        refunded = true;\n        buyer.transfer(funds);\n    }\n    \n    function balance () public view returns (uint){\n        require(debug);\n        return address(this).balance;\n    }\n    \n}",
  "sourcePath": "/home/bongi/Scrivania/Smart-Auctions/contracts/Escrow.sol",
  "compiler": {
    "name": "solc",
    "version": "0.5.8+commit.23d335f2.Emscripten.clang"
  },
  "schemaVersion": "3.0.10",
  "updatedAt": "2019-06-15T07:18:29.248Z",
  "devdoc": {
    "methods": {}
  },
  "userdoc": {
    "methods": {}
  }
}