{
  "contractName": "VickreyAuction",
  "abi": [
    {
      "constant": true,
      "inputs": [],
      "name": "sold",
      "outputs": [
        {
          "name": "",
          "type": "bool"
        }
      ],
      "payable": false,
      "stateMutability": "view",
      "type": "function"
    },
    {
      "constant": true,
      "inputs": [],
      "name": "start_withdrawal",
      "outputs": [
        {
          "name": "",
          "type": "uint256"
        }
      ],
      "payable": false,
      "stateMutability": "view",
      "type": "function"
    },
    {
      "constant": true,
      "inputs": [],
      "name": "end_withdrawal",
      "outputs": [
        {
          "name": "",
          "type": "uint256"
        }
      ],
      "payable": false,
      "stateMutability": "view",
      "type": "function"
    },
    {
      "constant": true,
      "inputs": [
        {
          "name": "",
          "type": "address"
        }
      ],
      "name": "bids",
      "outputs": [
        {
          "name": "bid_hash",
          "type": "bytes32"
        },
        {
          "name": "value",
          "type": "uint256"
        },
        {
          "name": "opened",
          "type": "bool"
        },
        {
          "name": "withdrawn",
          "type": "bool"
        },
        {
          "name": "refund",
          "type": "bool"
        }
      ],
      "payable": false,
      "stateMutability": "view",
      "type": "function"
    },
    {
      "constant": true,
      "inputs": [],
      "name": "reserve_price",
      "outputs": [
        {
          "name": "",
          "type": "uint256"
        }
      ],
      "payable": false,
      "stateMutability": "view",
      "type": "function"
    },
    {
      "constant": true,
      "inputs": [],
      "name": "end_commitment",
      "outputs": [
        {
          "name": "",
          "type": "uint256"
        }
      ],
      "payable": false,
      "stateMutability": "view",
      "type": "function"
    },
    {
      "constant": true,
      "inputs": [],
      "name": "phase",
      "outputs": [
        {
          "name": "",
          "type": "uint8"
        }
      ],
      "payable": false,
      "stateMutability": "view",
      "type": "function"
    },
    {
      "constant": true,
      "inputs": [],
      "name": "deposit_requirement",
      "outputs": [
        {
          "name": "",
          "type": "uint256"
        }
      ],
      "payable": false,
      "stateMutability": "view",
      "type": "function"
    },
    {
      "constant": true,
      "inputs": [],
      "name": "price_to_pay",
      "outputs": [
        {
          "name": "",
          "type": "uint256"
        }
      ],
      "payable": false,
      "stateMutability": "view",
      "type": "function"
    },
    {
      "constant": true,
      "inputs": [],
      "name": "start",
      "outputs": [
        {
          "name": "",
          "type": "uint256"
        }
      ],
      "payable": false,
      "stateMutability": "view",
      "type": "function"
    },
    {
      "constant": true,
      "inputs": [],
      "name": "start_opening",
      "outputs": [
        {
          "name": "",
          "type": "uint256"
        }
      ],
      "payable": false,
      "stateMutability": "view",
      "type": "function"
    },
    {
      "constant": true,
      "inputs": [],
      "name": "end",
      "outputs": [
        {
          "name": "",
          "type": "uint256"
        }
      ],
      "payable": false,
      "stateMutability": "view",
      "type": "function"
    },
    {
      "inputs": [
        {
          "name": "_seller",
          "type": "address"
        },
        {
          "name": "_reserve_price",
          "type": "uint256"
        },
        {
          "name": "_commitment_phase_length",
          "type": "uint256"
        },
        {
          "name": "_withdrawal_phase_length",
          "type": "uint256"
        },
        {
          "name": "_opening_phase_length",
          "type": "uint256"
        },
        {
          "name": "_deposit_requirement",
          "type": "uint256"
        },
        {
          "name": "_escrow_duration",
          "type": "uint256"
        },
        {
          "name": "_debug",
          "type": "bool"
        }
      ],
      "payable": false,
      "stateMutability": "nonpayable",
      "type": "constructor"
    },
    {
      "anonymous": false,
      "inputs": [
        {
          "indexed": false,
          "name": "",
          "type": "address"
        }
      ],
      "name": "LogEnvelopeCommited",
      "type": "event"
    },
    {
      "anonymous": false,
      "inputs": [
        {
          "indexed": false,
          "name": "",
          "type": "address"
        }
      ],
      "name": "LogEnvelopeWithdrawn",
      "type": "event"
    },
    {
      "anonymous": false,
      "inputs": [
        {
          "indexed": false,
          "name": "",
          "type": "address"
        },
        {
          "indexed": false,
          "name": "",
          "type": "uint256"
        }
      ],
      "name": "LogVoidBid",
      "type": "event"
    },
    {
      "anonymous": false,
      "inputs": [
        {
          "indexed": false,
          "name": "",
          "type": "address"
        },
        {
          "indexed": false,
          "name": "",
          "type": "uint256"
        }
      ],
      "name": "LogLosingBid",
      "type": "event"
    },
    {
      "anonymous": false,
      "inputs": [
        {
          "indexed": false,
          "name": "",
          "type": "uint256"
        },
        {
          "indexed": false,
          "name": "",
          "type": "uint256"
        }
      ],
      "name": "LogUpdateSecondPrice",
      "type": "event"
    },
    {
      "anonymous": false,
      "inputs": [
        {
          "indexed": false,
          "name": "",
          "type": "string"
        }
      ],
      "name": "LogPhaseTransition",
      "type": "event"
    },
    {
      "anonymous": false,
      "inputs": [
        {
          "indexed": false,
          "name": "",
          "type": "uint256"
        },
        {
          "indexed": false,
          "name": "",
          "type": "uint256"
        }
      ],
      "name": "LogAuctionStarting",
      "type": "event"
    },
    {
      "anonymous": false,
      "inputs": [
        {
          "indexed": false,
          "name": "",
          "type": "address"
        },
        {
          "indexed": false,
          "name": "",
          "type": "uint256"
        },
        {
          "indexed": false,
          "name": "",
          "type": "uint256"
        }
      ],
      "name": "LogHighestBid",
      "type": "event"
    },
    {
      "anonymous": false,
      "inputs": [],
      "name": "LogUnsold",
      "type": "event"
    },
    {
      "anonymous": false,
      "inputs": [
        {
          "indexed": false,
          "name": "",
          "type": "address"
        },
        {
          "indexed": false,
          "name": "",
          "type": "uint256"
        }
      ],
      "name": "LogSold",
      "type": "event"
    },
    {
      "anonymous": false,
      "inputs": [
        {
          "indexed": false,
          "name": "",
          "type": "address"
        }
      ],
      "name": "LogEscrowCreated",
      "type": "event"
    },
    {
      "constant": false,
      "inputs": [
        {
          "name": "_phase",
          "type": "uint8"
        }
      ],
      "name": "nextPhase",
      "outputs": [],
      "payable": false,
      "stateMutability": "nonpayable",
      "type": "function"
    },
    {
      "constant": true,
      "inputs": [
        {
          "name": "nonce",
          "type": "bytes32"
        },
        {
          "name": "val",
          "type": "uint256"
        }
      ],
      "name": "debug_keccak",
      "outputs": [
        {
          "name": "",
          "type": "bytes32"
        }
      ],
      "payable": false,
      "stateMutability": "view",
      "type": "function"
    },
    {
      "constant": false,
      "inputs": [
        {
          "name": "_envelope",
          "type": "bytes32"
        }
      ],
      "name": "commit",
      "outputs": [],
      "payable": true,
      "stateMutability": "payable",
      "type": "function"
    },
    {
      "constant": false,
      "inputs": [],
      "name": "withdraw_envelope",
      "outputs": [],
      "payable": false,
      "stateMutability": "nonpayable",
      "type": "function"
    },
    {
      "constant": false,
      "inputs": [
        {
          "name": "nonce",
          "type": "bytes32"
        }
      ],
      "name": "open",
      "outputs": [],
      "payable": true,
      "stateMutability": "payable",
      "type": "function"
    },
    {
      "constant": false,
      "inputs": [],
      "name": "finalize",
      "outputs": [
        {
          "name": "",
          "type": "bool"
        }
      ],
      "payable": false,
      "stateMutability": "nonpayable",
      "type": "function"
    },
    {
      "constant": false,
      "inputs": [],
      "name": "ask_refund",
      "outputs": [],
      "payable": false,
      "stateMutability": "nonpayable",
      "type": "function"
    }
  ],
  "bytecode": "0x608060405233600660006101000a81548173ffffffffffffffffffffffffffffffffffffffff021916908373ffffffffffffffffffffffffffffffffffffffff16021790555043600b556000601160006101000a81548160ff021916908360038111156200006957fe5b02179055503480156200007b57600080fd5b506040516101008062002b6283398101806040526101008110156200009f57600080fd5b810190808051906020019092919080519060200190929190805190602001909291908051906020019092919080519060200190929190805190602001909291908051906020019092919080519060200190929190505050600083116200010457600080fd5b600087116200011257600080fd5b600487816200011d57fe5b048310158015620001395750600287816200013457fe5b048311155b6200014357600080fd5b87600560016101000a81548173ffffffffffffffffffffffffffffffffffffffff021916908373ffffffffffffffffffffffffffffffffffffffff160217905550826009819055508660088190555085600b5401600c819055506001600c5401600d8190555084600d5401600e819055506001600e5401600f8190555083600f540160108190555081600a8190555080600560006101000a81548160ff0219169083151502179055507fc2c19c52f2e656ec534b32dc921dfde2ad111398350b58fbfb04ec93640e9ecd600b54601054604051808381526020018281526020019250505060405180910390a1505050505050505061291b80620002476000396000f3fe6080604052600436106101145760003560e01c8063b1c9fe6e116100a0578063d3b3f73a11610064578063d3b3f73a146103f1578063db0cf6381461041f578063efbe1c1c1461044a578063f14fcbc814610475578063ff11250e146104a357610114565b8063b1c9fe6e14610320578063bcde4f5714610359578063bdbd1a0414610384578063be9a6555146103af578063d3697fe5146103da57610114565b80634fb2f3a4116100e75780634fb2f3a4146101cd57806362ea82db1461022657806368dc824d146102b3578063a3d7a2a5146102de578063af902072146102f557610114565b806302c7e7af146101195780631b0f697714610148578063224bde6d146101735780634bb278f31461019e575b600080fd5b34801561012557600080fd5b5061012e6104e1565b604051808215151515815260200191505060405180910390f35b34801561015457600080fd5b5061015d6104f4565b6040518082815260200191505060405180910390f35b34801561017f57600080fd5b506101886104fa565b6040518082815260200191505060405180910390f35b3480156101aa57600080fd5b506101b3610500565b604051808215151515815260200191505060405180910390f35b3480156101d957600080fd5b50610210600480360360408110156101f057600080fd5b8101908080359060200190929190803590602001909291905050506109d2565b6040518082815260200191505060405180910390f35b34801561023257600080fd5b506102756004803603602081101561024957600080fd5b81019080803573ffffffffffffffffffffffffffffffffffffffff169060200190929190505050610a24565b604051808681526020018581526020018415151515815260200183151515158152602001821515151581526020019550505050505060405180910390f35b3480156102bf57600080fd5b506102c8610a81565b6040518082815260200191505060405180910390f35b3480156102ea57600080fd5b506102f3610a87565b005b34801561030157600080fd5b5061030a610d5b565b6040518082815260200191505060405180910390f35b34801561032c57600080fd5b50610335610d61565b6040518082600381111561034557fe5b60ff16815260200191505060405180910390f35b34801561036557600080fd5b5061036e610d74565b6040518082815260200191505060405180910390f35b34801561039057600080fd5b50610399610d7a565b6040518082815260200191505060405180910390f35b3480156103bb57600080fd5b506103c4610d80565b6040518082815260200191505060405180910390f35b3480156103e657600080fd5b506103ef610d86565b005b61041d6004803603602081101561040757600080fd5b81019080803590602001909291905050506110f2565b005b34801561042b57600080fd5b506104346118bd565b6040518082815260200191505060405180910390f35b34801561045657600080fd5b5061045f6118c3565b6040518082815260200191505060405180910390f35b6104a16004803603602081101561048b57600080fd5b81019080803590602001909291905050506118c9565b005b3480156104af57600080fd5b506104df600480360360208110156104c657600080fd5b81019080803560ff169060200190929190505050611bed565b005b601460009054906101000a900460ff1681565b600d5481565b600e5481565b6000600560009054906101000a900460ff166105e3576000600381111561052357fe5b601160009054906101000a900460ff16600381111561053e57fe5b14801561054c5750600c5443115b1561055a57610559611cdf565b5b6001600381111561056757fe5b601160009054906101000a900460ff16600381111561058257fe5b1480156105905750600e5443115b1561059e5761059d611cdf565b5b600260038111156105ab57fe5b601160009054906101000a900460ff1660038111156105c657fe5b1480156105d4575060105443115b156105e2576105e1611cdf565b5b5b60038060038111156105f157fe5b601160009054906101000a900460ff16600381111561060c57fe5b14610662576040517f08c379a00000000000000000000000000000000000000000000000000000000081526004018080602001828103825260228152602001806128ce6022913960400191505060405180910390fd5b600660009054906101000a900473ffffffffffffffffffffffffffffffffffffffff1673ffffffffffffffffffffffffffffffffffffffff163373ffffffffffffffffffffffffffffffffffffffff16148061070b5750600560019054906101000a900473ffffffffffffffffffffffffffffffffffffffff1673ffffffffffffffffffffffffffffffffffffffff163373ffffffffffffffffffffffffffffffffffffffff16145b806107635750600360009054906101000a900473ffffffffffffffffffffffffffffffffffffffff1673ffffffffffffffffffffffffffffffffffffffff163373ffffffffffffffffffffffffffffffffffffffff16145b61076c57600080fd5b601460009054906101000a900460ff161561078657600080fd5b600060045414156107c6577f88fa98cc7dd6b85eec78a451d1607198001e4dbc74d5d9c98101dbaaed70ceca60405160405180910390a1600091506109ce565b6001601460006101000a81548160ff0219169083151502179055506000601354600560019054906101000a900473ffffffffffffffffffffffffffffffffffffffff16600360009054906101000a900473ffffffffffffffffffffffffffffffffffffffff16600560009054906101000a900460ff16603260405161084a90611f56565b808573ffffffffffffffffffffffffffffffffffffffff1673ffffffffffffffffffffffffffffffffffffffff1681526020018473ffffffffffffffffffffffffffffffffffffffff1673ffffffffffffffffffffffffffffffffffffffff168152602001831515151581526020018281526020019450505050506040518091039082f0801580156108e0573d6000803e3d6000fd5b50905090507fd404854b721b135520ad75713dbdfe002c7c50738f06d4f1e40d22c5e8c85ec081604051808273ffffffffffffffffffffffffffffffffffffffff1673ffffffffffffffffffffffffffffffffffffffff16815260200191505060405180910390a1600760009054906101000a900473ffffffffffffffffffffffffffffffffffffffff1673ffffffffffffffffffffffffffffffffffffffff166108fc3073ffffffffffffffffffffffffffffffffffffffff16319081150290604051600060405180830381858888f193505050501580156109c7573d6000803e3d6000fd5b5060019250505b5090565b6000600560009054906101000a900460ff166109ed57600080fd5b8282604051602001808381526020018281526020019250505060405160208183030381529060405280519060200120905092915050565b60126020528060005260406000206000915090508060000154908060010154908060020160009054906101000a900460ff16908060020160019054906101000a900460ff16908060020160029054906101000a900460ff16905085565b60085481565b600560009054906101000a900460ff16610b685760006003811115610aa857fe5b601160009054906101000a900460ff166003811115610ac357fe5b148015610ad15750600c5443115b15610adf57610ade611cdf565b5b60016003811115610aec57fe5b601160009054906101000a900460ff166003811115610b0757fe5b148015610b155750600e5443115b15610b2357610b22611cdf565b5b60026003811115610b3057fe5b601160009054906101000a900460ff166003811115610b4b57fe5b148015610b59575060105443115b15610b6757610b66611cdf565b5b5b6001806003811115610b7657fe5b601160009054906101000a900460ff166003811115610b9157fe5b14610be7576040517f08c379a00000000000000000000000000000000000000000000000000000000081526004018080602001828103825260228152602001806128ce6022913960400191505060405180910390fd5b60001515601260003373ffffffffffffffffffffffffffffffffffffffff1673ffffffffffffffffffffffffffffffffffffffff16815260200190815260200160002060020160019054906101000a900460ff16151514610c4757600080fd5b6001601260003373ffffffffffffffffffffffffffffffffffffffff1673ffffffffffffffffffffffffffffffffffffffff16815260200190815260200160002060020160016101000a81548160ff0219169083151502179055507fe549fd85dc3b7e84c965877a3fa890525e7a14175c5acd686382189dbf7d910933604051808273ffffffffffffffffffffffffffffffffffffffff1673ffffffffffffffffffffffffffffffffffffffff16815260200191505060405180910390a13373ffffffffffffffffffffffffffffffffffffffff166108fc600260095481610d2b57fe5b049081150290604051600060405180830381858888f19350505050158015610d57573d6000803e3d6000fd5b5050565b600c5481565b601160009054906101000a900460ff1681565b60095481565b60135481565b600b5481565b600560009054906101000a900460ff16610e675760006003811115610da757fe5b601160009054906101000a900460ff166003811115610dc257fe5b148015610dd05750600c5443115b15610dde57610ddd611cdf565b5b60016003811115610deb57fe5b601160009054906101000a900460ff166003811115610e0657fe5b148015610e145750600e5443115b15610e2257610e21611cdf565b5b60026003811115610e2f57fe5b601160009054906101000a900460ff166003811115610e4a57fe5b148015610e58575060105443115b15610e6657610e65611cdf565b5b5b6003806003811115610e7557fe5b601160009054906101000a900460ff166003811115610e9057fe5b14610ee6576040517f08c379a00000000000000000000000000000000000000000000000000000000081526004018080602001828103825260228152602001806128ce6022913960400191505060405180910390fd5b601260003373ffffffffffffffffffffffffffffffffffffffff1673ffffffffffffffffffffffffffffffffffffffff16815260200190815260200160002060020160009054906101000a900460ff168015610f8f5750601260003373ffffffffffffffffffffffffffffffffffffffff1673ffffffffffffffffffffffffffffffffffffffff16815260200190815260200160002060020160029054906101000a900460ff16155b610f9857600080fd5b6001601260003373ffffffffffffffffffffffffffffffffffffffff1673ffffffffffffffffffffffffffffffffffffffff16815260200190815260200160002060020160026101000a81548160ff0219169083151502179055506000600360009054906101000a900473ffffffffffffffffffffffffffffffffffffffff1673ffffffffffffffffffffffffffffffffffffffff163373ffffffffffffffffffffffffffffffffffffffff16141561105d57601354600454036009540190506110a7565b601260003373ffffffffffffffffffffffffffffffffffffffff1673ffffffffffffffffffffffffffffffffffffffff168152602001908152602001600020600101546009540190505b3373ffffffffffffffffffffffffffffffffffffffff166108fc829081150290604051600060405180830381858888f193505050501580156110ed573d6000803e3d6000fd5b505050565b600560009054906101000a900460ff166111d3576000600381111561111357fe5b601160009054906101000a900460ff16600381111561112e57fe5b14801561113c5750600c5443115b1561114a57611149611cdf565b5b6001600381111561115757fe5b601160009054906101000a900460ff16600381111561117257fe5b1480156111805750600e5443115b1561118e5761118d611cdf565b5b6002600381111561119b57fe5b601160009054906101000a900460ff1660038111156111b657fe5b1480156111c4575060105443115b156111d2576111d1611cdf565b5b5b60028060038111156111e157fe5b601160009054906101000a900460ff1660038111156111fc57fe5b14611252576040517f08c379a00000000000000000000000000000000000000000000000000000000081526004018080602001828103825260228152602001806128ce6022913960400191505060405180910390fd5b6000601260003373ffffffffffffffffffffffffffffffffffffffff1673ffffffffffffffffffffffffffffffffffffffff16815260200190815260200160002050602060ff161180156112f35750601260003373ffffffffffffffffffffffffffffffffffffffff1673ffffffffffffffffffffffffffffffffffffffff16815260200190815260200160002060020160009054906101000a900460ff16155b801561134c5750601260003373ffffffffffffffffffffffffffffffffffffffff1673ffffffffffffffffffffffffffffffffffffffff16815260200190815260200160002060020160019054906101000a900460ff16155b61135557600080fd5b600082346040516020018083815260200182815260200192505050604051602081830303815290604052805190602001209050601260003373ffffffffffffffffffffffffffffffffffffffff1673ffffffffffffffffffffffffffffffffffffffff1681526020019081526020016000206000015481146113d657600080fd5b6001601260003373ffffffffffffffffffffffffffffffffffffffff1673ffffffffffffffffffffffffffffffffffffffff16815260200190815260200160002060020160006101000a81548160ff02191690831515021790555034601260003373ffffffffffffffffffffffffffffffffffffffff1673ffffffffffffffffffffffffffffffffffffffff168152602001908152602001600020600101819055506008543410156115a2576001601260003373ffffffffffffffffffffffffffffffffffffffff1673ffffffffffffffffffffffffffffffffffffffff16815260200190815260200160002060020160026101000a81548160ff0219169083151502179055507f8a0692169e5af7f719f34a053eec0e235739b669bf1c22e985b09c32cd7af0003334604051808373ffffffffffffffffffffffffffffffffffffffff1673ffffffffffffffffffffffffffffffffffffffff1681526020018281526020019250505060405180910390a13373ffffffffffffffffffffffffffffffffffffffff166108fc60026009548161156e57fe5b0434019081150290604051600060405180830381858888f1935050505015801561159c573d6000803e3d6000fd5b506118b8565b60006004541415611678576008546013819055503460048190555033600360006101000a81548173ffffffffffffffffffffffffffffffffffffffff021916908373ffffffffffffffffffffffffffffffffffffffff1602179055507f2fdfae8f739f39313524d099053770ab9602ed675bd8e847776a4108ee4673c43334600854604051808473ffffffffffffffffffffffffffffffffffffffff1673ffffffffffffffffffffffffffffffffffffffff168152602001838152602001828152602001935050505060405180910390a16118b7565b60045434116117ef5760135434106116d357346013819055507f39b8dbc1e998aef0aa9678e7b1e75bf4cf8ccb825cded22362538257a58f314034601354604051808381526020018281526020019250505060405180910390a15b6001601260003373ffffffffffffffffffffffffffffffffffffffff1673ffffffffffffffffffffffffffffffffffffffff16815260200190815260200160002060020160026101000a81548160ff0219169083151502179055506000600954340190507fa3fed4112365c0925311f8e906c8ccc1c86ce85201b996dc41e824ff262930c23334604051808373ffffffffffffffffffffffffffffffffffffffff1673ffffffffffffffffffffffffffffffffffffffff1681526020018281526020019250505060405180910390a13373ffffffffffffffffffffffffffffffffffffffff166108fc829081150290604051600060405180830381858888f193505050501580156117e8573d6000803e3d6000fd5b50506118b6565b6004546013819055503460048190555033600360006101000a81548173ffffffffffffffffffffffffffffffffffffffff021916908373ffffffffffffffffffffffffffffffffffffffff1602179055507f2fdfae8f739f39313524d099053770ab9602ed675bd8e847776a4108ee4673c43334601354604051808473ffffffffffffffffffffffffffffffffffffffff1673ffffffffffffffffffffffffffffffffffffffff168152602001838152602001828152602001935050505060405180910390a15b5b5b505050565b600f5481565b60105481565b600560009054906101000a900460ff166119aa57600060038111156118ea57fe5b601160009054906101000a900460ff16600381111561190557fe5b1480156119135750600c5443115b1561192157611920611cdf565b5b6001600381111561192e57fe5b601160009054906101000a900460ff16600381111561194957fe5b1480156119575750600e5443115b1561196557611964611cdf565b5b6002600381111561197257fe5b601160009054906101000a900460ff16600381111561198d57fe5b14801561199b575060105443115b156119a9576119a8611cdf565b5b5b60008060038111156119b857fe5b601160009054906101000a900460ff1660038111156119d357fe5b14611a29576040517f08c379a00000000000000000000000000000000000000000000000000000000081526004018080602001828103825260228152602001806128ce6022913960400191505060405180910390fd5b600954803414611a3857600080fd5b600560019054906101000a900473ffffffffffffffffffffffffffffffffffffffff1673ffffffffffffffffffffffffffffffffffffffff163373ffffffffffffffffffffffffffffffffffffffff1614158015611ae45750600660009054906101000a900473ffffffffffffffffffffffffffffffffffffffff1673ffffffffffffffffffffffffffffffffffffffff163373ffffffffffffffffffffffffffffffffffffffff1614155b611aed57600080fd5b6000601260003373ffffffffffffffffffffffffffffffffffffffff1673ffffffffffffffffffffffffffffffffffffffff16815260200190815260200160002050602060ff1614611b3e57600080fd5b82601260003373ffffffffffffffffffffffffffffffffffffffff1673ffffffffffffffffffffffffffffffffffffffff168152602001908152602001600020600001819055507f01562848c2825f048438ebd695d1c5064034f219f525839dcd14378e7de6659033604051808273ffffffffffffffffffffffffffffffffffffffff1673ffffffffffffffffffffffffffffffffffffffff16815260200191505060405180910390a1505050565b600560009054906101000a900460ff16611c0657600080fd5b80601160006101000a81548160ff02191690836003811115611c2457fe5b02179055507ff41b3b7205d6f8c65b2e34682ea23cd386f7a792ac15527c092c9b5ebea807b5611c62601160009054906101000a900460ff16611ddf565b6040518080602001828103825283818151815260200191508051906020019080838360005b83811015611ca2578082015181840152602081019050611c87565b50505050905090810190601f168015611ccf5780820380516001836020036101000a031916815260200191505b509250505060405180910390a150565b6001601160009054906101000a900460ff166003811115611cfc57fe5b016003811115611d0857fe5b601160006101000a81548160ff02191690836003811115611d2557fe5b02179055507ff41b3b7205d6f8c65b2e34682ea23cd386f7a792ac15527c092c9b5ebea807b5611d63601160009054906101000a900460ff16611ddf565b6040518080602001828103825283818151815260200191508051906020019080838360005b83811015611da3578082015181840152602081019050611d88565b50505050905090810190601f168015611dd05780820380516001836020036101000a031916815260200191505b509250505060405180910390a1565b606060006003811115611dee57fe5b826003811115611dfa57fe5b1415611e3d576040518060400160405280601081526020017f436f6d6d69746d656e74207068617365000000000000000000000000000000008152509050611f51565b60016003811115611e4a57fe5b826003811115611e5657fe5b1415611e99576040518060400160405280601081526020017f5769746864726177616c207068617365000000000000000000000000000000008152509050611f51565b60026003811115611ea657fe5b826003811115611eb257fe5b1415611ef5576040518060400160405280600d81526020017f4f70656e696e67207068617365000000000000000000000000000000000000008152509050611f51565b600380811115611f0157fe5b826003811115611f0d57fe5b1415611f50576040518060400160405280600e81526020017f46696e69736865642070686173650000000000000000000000000000000000008152509050611f51565b5b919050565b61096a80611f648339019056fe60806040524360015560405160808061096a8339810180604052608081101561002757600080fd5b81019080805190602001909291908051906020019092919080519060200190929190805190602001909291905050508273ffffffffffffffffffffffffffffffffffffffff168473ffffffffffffffffffffffffffffffffffffffff16141561008f57600080fd5b6000341161009c57600080fd5b83600360006101000a81548173ffffffffffffffffffffffffffffffffffffffff021916908373ffffffffffffffffffffffffffffffffffffffff16021790555082600460006101000a81548173ffffffffffffffffffffffffffffffffffffffff021916908373ffffffffffffffffffffffffffffffffffffffff16021790555081600760006101000a81548160ff021916908315150217905550806001540160028190555050505050610814806101566000396000f3fe608060405234801561001057600080fd5b506004361061007d5760003560e01c80636923d1591161005b5780636923d15914610199578063887199c7146101a3578063b69ef8a8146101ad578063c89f2ce4146101cb5761007d565b80631aebd6d514610082578063303a0e6f1461013d5780633795b0af1461016b575b600080fd5b61013b6004803603602081101561009857600080fd5b81019080803590602001906401000000008111156100b557600080fd5b8201836020820111156100c757600080fd5b803590602001918460018302840111640100000000831117156100e957600080fd5b91908080601f016020809104026020016040519081016040528093929190818152602001838380828437600081840152601f19601f8201169050808301925050505050505091929192905050506101e9565b005b6101696004803603602081101561015357600080fd5b810190808035906020019092919050505061029e565b005b6101976004803603602081101561018157600080fd5b81019080803590602001909291905050506103f5565b005b6101a1610468565b005b6101ab6105ae565b005b6101b5610705565b6040518082815260200191505060405180910390f35b6101d361073d565b6040518082815260200191505060405180910390f35b600060068054600181600116156101000203166002900490501415801561021257506000815114155b61021b57600080fd5b600360009054906101000a900473ffffffffffffffffffffffffffffffffffffffff1673ffffffffffffffffffffffffffffffffffffffff163373ffffffffffffffffffffffffffffffffffffffff161461027557600080fd5b60025443111561028457600080fd5b806006908051906020019061029a929190610743565b5050565b600760019054906101000a900460ff16156102b857600080fd5b600360009054906101000a900473ffffffffffffffffffffffffffffffffffffffff1673ffffffffffffffffffffffffffffffffffffffff163373ffffffffffffffffffffffffffffffffffffffff1614801561031a57506000602060ff1614155b61032357600080fd5b60025443111561033257600080fd5b60008160405160200180828152602001915050604051602081830303815290604052805190602001209050600554811461036b57600080fd5b6001600760016101000a81548160ff021916908315150217905550600360009054906101000a900473ffffffffffffffffffffffffffffffffffffffff1673ffffffffffffffffffffffffffffffffffffffff166108fc6000549081150290604051600060405180830381858888f193505050501580156103f0573d6000803e3d6000fd5b505050565b60025443111561040457600080fd5b600460009054906101000a900473ffffffffffffffffffffffffffffffffffffffff1673ffffffffffffffffffffffffffffffffffffffff163373ffffffffffffffffffffffffffffffffffffffff161461045e57600080fd5b8060058190555050565b600254431161047657600080fd5b600060068054600181600116156101000203166002900490501161049957600080fd5b600360009054906101000a900473ffffffffffffffffffffffffffffffffffffffff1673ffffffffffffffffffffffffffffffffffffffff163373ffffffffffffffffffffffffffffffffffffffff16146104f357600080fd5b600760019054906101000a900460ff1615801561051d5750600760029054906101000a900460ff16155b61052657600080fd5b6001600760016101000a81548160ff021916908315150217905550600360009054906101000a900473ffffffffffffffffffffffffffffffffffffffff1673ffffffffffffffffffffffffffffffffffffffff166108fc6000549081150290604051600060405180830381858888f193505050501580156105ab573d6000803e3d6000fd5b50565b60025443116105bc57600080fd5b60006006805460018160011615610100020316600290049050146105df57600080fd5b600460009054906101000a900473ffffffffffffffffffffffffffffffffffffffff1673ffffffffffffffffffffffffffffffffffffffff163373ffffffffffffffffffffffffffffffffffffffff161461063957600080fd5b6000602060ff161161064a57600080fd5b600760029054906101000a900460ff161580156106745750600760019054906101000a900460ff16155b61067d57600080fd5b6001600760026101000a81548160ff021916908315150217905550600460009054906101000a900473ffffffffffffffffffffffffffffffffffffffff1673ffffffffffffffffffffffffffffffffffffffff166108fc6000549081150290604051600060405180830381858888f19350505050158015610702573d6000803e3d6000fd5b50565b6000600760009054906101000a900460ff1661072057600080fd5b3073ffffffffffffffffffffffffffffffffffffffff1631905090565b60005481565b828054600181600116156101000203166002900490600052602060002090601f016020900481019282601f1061078457805160ff19168380011785556107b2565b828001600101855582156107b2579182015b828111156107b1578251825591602001919060010190610796565b5b5090506107bf91906107c3565b5090565b6107e591905b808211156107e15760008160009055506001016107c9565b5090565b9056fea165627a7a72305820f397b1ca6e61cc8ad431ffe5e3af7b7b56fca226772b07fd71cbf181363ab53b002946756e6374696f6e206e6f7420616c6c6f77656420696e2074686973207068617365a165627a7a723058207e579f88f5b787f66af05357a216fd275b6f28f2d26f0320b30b5e72057e49cc0029",
  "source": "pragma solidity >=0.4.22 <0.7.0;\n\nimport \"./Auction.sol\";\nimport \"./Escrow.sol\";\n\ncontract VickreyAuction is Auction {\n    \n    struct Bid {\n        bytes32 bid_hash;\n        uint value;\n        bool opened;\n        bool withdrawn;\n        bool refund;\n    }\n    \n    enum Phases {\n        CommitmentPhase,\n        WithdrawalPhase,\n        OpeningPhase,\n        Finished\n    }\n    \n    /// static after contract constructor\n    address payable seller;\n    address payable auctioneer = msg.sender;\n    address payable charity;\n    \n    uint public reserve_price;\n    uint public deposit_requirement;\n    uint escrow_duration;\n    \n    uint public start = block.number; /// 20 is a grace period of about 5 mins\n    uint public end_commitment;\n\n    uint public start_withdrawal;\n    uint public end_withdrawal;\n    \n    uint public start_opening;\n    uint public end;\n    \n    /// state of the contract\n    Phases public phase = Phases.CommitmentPhase;\n    mapping(address => Bid) public bids;\n    uint public price_to_pay; /// 2nd highest bid\n    bool public sold;\n\n    event LogEnvelopeCommited(address);\n    event LogEnvelopeWithdrawn(address);\n    event LogVoidBid(address, uint);\n    event LogLosingBid(address, uint);\n    event LogUpdateSecondPrice(uint, uint);\n    \n    modifier duringPhase(Phases _phase) {\n        require(phase == _phase, \"Function not allowed in this phase\"); _;\n    }\n    \n    function phaseToString(Phases _phase) internal pure returns (string memory) {\n        if(_phase == Phases.CommitmentPhase) return \"Commitment phase\";\n        if(_phase == Phases.WithdrawalPhase) return \"Withdrawal phase\";\n        if(_phase == Phases.OpeningPhase) return \"Opening phase\";\n        if(_phase == Phases.Finished) return \"Finished phase\";\n    }\n    \n    function nextPhase() internal {\n        phase = Phases(uint(phase) + 1);\n        emit LogPhaseTransition(phaseToString(phase));\n    }\n    \n    function nextPhase(Phases _phase) public {\n        require(debug);\n        phase = _phase;\n        emit LogPhaseTransition(phaseToString(phase));\n    }\n    \n    modifier blockTimedTransition() {\n        if(!debug) {\n            if(phase == Phases.CommitmentPhase && block.number > end_commitment)\n                nextPhase();\n            if(phase == Phases.WithdrawalPhase && block.number > end_withdrawal)\n                nextPhase();\n            if(phase == Phases.OpeningPhase && block.number > end)\n                nextPhase();\n        }\n        _;\n    }\n  \n    modifier only_auctioneer_seller_buyer {\n        require(msg.sender == auctioneer || msg.sender == seller || msg.sender == highest_bidder); _;\n    }\n    \n    modifier eligibleForRefund {\n        require(bids[msg.sender].opened && !bids[msg.sender].refund); _;\n        /// withdrawn => !opened\n    }\n    \n    \n    function debug_keccak(bytes32 nonce, uint val) public view returns (bytes32) {\n        require(debug);\n        return keccak256(abi.encode(nonce,val));\n    }\n    \n    constructor (address payable _seller, uint _reserve_price, uint _commitment_phase_length, uint _withdrawal_phase_length, \n                    uint _opening_phase_length, uint _deposit_requirement, uint _escrow_duration, bool _debug) public {\n        require(_deposit_requirement > 0);\n        require(_reserve_price > 0);\n        require(_deposit_requirement >= _reserve_price/4 && _deposit_requirement <= _reserve_price/2);\n        \n        /* check that phases lengths are > 0*/\n        \n        seller = _seller;\n\n        deposit_requirement  = _deposit_requirement;\n        reserve_price = _reserve_price;\n\n        end_commitment = start+_commitment_phase_length;\n        \n        start_withdrawal = end_commitment+1;\n        end_withdrawal = start_withdrawal+_withdrawal_phase_length;\n        \n        start_opening = end_withdrawal+1;\n        end = start_opening+_opening_phase_length;\n        \n        escrow_duration = _escrow_duration;\n        debug = _debug;\n        \n        emit LogAuctionStarting(start, end);\n    }\n    \n    function commit(bytes32 _envelope) public payable blockTimedTransition duringPhase(Phases.CommitmentPhase) costs(deposit_requirement) {\n        require(msg.sender != seller && msg.sender != auctioneer);\n        require(bids[msg.sender].bid_hash.length == 0);\n\n        bids[msg.sender].bid_hash = _envelope;\n        \n        emit LogEnvelopeCommited(msg.sender);\n        \n    }\n    \n    function withdraw_envelope() public blockTimedTransition duringPhase(Phases.WithdrawalPhase) {\n        require(bids[msg.sender].withdrawn == false);\n        \n        bids[msg.sender].withdrawn = true;\n        emit LogEnvelopeWithdrawn(msg.sender);\n\n        msg.sender.transfer(deposit_requirement/2);\n        \n    }\n    \n    function open(bytes32 nonce) public payable blockTimedTransition duringPhase(Phases.OpeningPhase) {\n        require(bids[msg.sender].bid_hash.length > 0 && !bids[msg.sender].opened && !bids[msg.sender].withdrawn);\n\n        bytes32 hash = keccak256(abi.encode(nonce, msg.value));\n        require(hash == bids[msg.sender].bid_hash);\n        \n        bids[msg.sender].opened = true;\n        bids[msg.sender].value = msg.value;\n        \n        /// void bid \n        if(msg.value < reserve_price) {\n            bids[msg.sender].refund = true;\n            emit LogVoidBid(msg.sender, msg.value);\n            msg.sender.transfer(msg.value+(deposit_requirement/2));\n        } else {    \n            /// first valid opened bid\n            if(highest_bid == 0) {\n                price_to_pay = reserve_price;\n                highest_bid = msg.value;\n                highest_bidder = msg.sender;\n                emit LogHighestBid(msg.sender, msg.value, reserve_price);\n            }\n            /// losing bid\n            else if(msg.value <= highest_bid ) {\n               ///...but check if 2nd highest bid\n                if(msg.value >= price_to_pay) {\n                    price_to_pay = msg.value;\n                    emit LogUpdateSecondPrice(msg.value, price_to_pay);\n\n                }\n                bids[msg.sender].refund = true;\n                uint full_refund = msg.value+deposit_requirement;\n                emit LogLosingBid(msg.sender, msg.value);\n                msg.sender.transfer(full_refund);\n            }\n            /// new highest_bid\n            else {\n                price_to_pay = highest_bid;\n                highest_bid = msg.value;\n                highest_bidder = msg.sender;\n                emit LogHighestBid(msg.sender, msg.value, price_to_pay);\n            }\n        }\n    }\n    \n    function finalize() public blockTimedTransition duringPhase(Phases.Finished) only_auctioneer_seller_buyer returns (bool){\n        require(!sold);\n        if(highest_bid == 0) {\n            emit LogUnsold();\n            return false;\n        }\n        sold = true;\n        /// initialize escrow contract\n        Escrow e = (new Escrow).value(price_to_pay)(seller, highest_bidder, debug, 50);\n        emit LogEscrowCreated(address(e));\n        /// send fund to charity\n        charity.transfer(address(this).balance);\n        \n        return true;\n    }\n    \n    function ask_refund() public blockTimedTransition duringPhase(Phases.Finished) eligibleForRefund {\n        bids[msg.sender].refund = true;\n        \n        uint refund;\n        \n        if(msg.sender == highest_bidder)\n            refund = deposit_requirement+(highest_bid-price_to_pay);\n        else\n            refund = deposit_requirement+bids[msg.sender].value;\n        \n        msg.sender.transfer(refund);\n    }\n}",
  "sourcePath": "/home/bongi/Scrivania/Smart-Auctions/contracts/VickreyAuction.sol",
  "compiler": {
    "name": "solc",
    "version": "0.5.8+commit.23d335f2.Emscripten.clang"
  },
  "schemaVersion": "3.0.10",
  "updatedAt": "2019-06-15T07:18:30.132Z",
  "devdoc": {
    "methods": {}
  },
  "userdoc": {
    "methods": {}
  }
}