{
  "contractName": "VickreyAuction",
  "abi": [
    {
      "constant": true,
      "inputs": [],
      "name": "sold",
      "outputs": [
        {
          "name": "",
          "type": "bool"
        }
      ],
      "payable": false,
      "stateMutability": "view",
      "type": "function"
    },
    {
      "constant": true,
      "inputs": [],
      "name": "start_withdrawal",
      "outputs": [
        {
          "name": "",
          "type": "uint256"
        }
      ],
      "payable": false,
      "stateMutability": "view",
      "type": "function"
    },
    {
      "constant": true,
      "inputs": [],
      "name": "end_withdrawal",
      "outputs": [
        {
          "name": "",
          "type": "uint256"
        }
      ],
      "payable": false,
      "stateMutability": "view",
      "type": "function"
    },
    {
      "constant": true,
      "inputs": [
        {
          "name": "",
          "type": "address"
        }
      ],
      "name": "bids",
      "outputs": [
        {
          "name": "bid_hash",
          "type": "bytes32"
        },
        {
          "name": "value",
          "type": "uint256"
        },
        {
          "name": "opened",
          "type": "bool"
        },
        {
          "name": "withdrawn",
          "type": "bool"
        },
        {
          "name": "refund",
          "type": "bool"
        }
      ],
      "payable": false,
      "stateMutability": "view",
      "type": "function"
    },
    {
      "constant": true,
      "inputs": [],
      "name": "opening_phase_length",
      "outputs": [
        {
          "name": "",
          "type": "uint256"
        }
      ],
      "payable": false,
      "stateMutability": "view",
      "type": "function"
    },
    {
      "constant": true,
      "inputs": [],
      "name": "reserve_price",
      "outputs": [
        {
          "name": "",
          "type": "uint256"
        }
      ],
      "payable": false,
      "stateMutability": "view",
      "type": "function"
    },
    {
      "constant": true,
      "inputs": [],
      "name": "end_commitment",
      "outputs": [
        {
          "name": "",
          "type": "uint256"
        }
      ],
      "payable": false,
      "stateMutability": "view",
      "type": "function"
    },
    {
      "constant": true,
      "inputs": [],
      "name": "deposit_requirement",
      "outputs": [
        {
          "name": "",
          "type": "uint256"
        }
      ],
      "payable": false,
      "stateMutability": "view",
      "type": "function"
    },
    {
      "constant": true,
      "inputs": [],
      "name": "price_to_pay",
      "outputs": [
        {
          "name": "",
          "type": "uint256"
        }
      ],
      "payable": false,
      "stateMutability": "view",
      "type": "function"
    },
    {
      "constant": true,
      "inputs": [],
      "name": "start",
      "outputs": [
        {
          "name": "",
          "type": "uint256"
        }
      ],
      "payable": false,
      "stateMutability": "view",
      "type": "function"
    },
    {
      "constant": true,
      "inputs": [],
      "name": "commitment_phase_length",
      "outputs": [
        {
          "name": "",
          "type": "uint256"
        }
      ],
      "payable": false,
      "stateMutability": "view",
      "type": "function"
    },
    {
      "constant": true,
      "inputs": [],
      "name": "start_opening",
      "outputs": [
        {
          "name": "",
          "type": "uint256"
        }
      ],
      "payable": false,
      "stateMutability": "view",
      "type": "function"
    },
    {
      "constant": true,
      "inputs": [],
      "name": "end",
      "outputs": [
        {
          "name": "",
          "type": "uint256"
        }
      ],
      "payable": false,
      "stateMutability": "view",
      "type": "function"
    },
    {
      "constant": true,
      "inputs": [],
      "name": "withdrawal_phase_length",
      "outputs": [
        {
          "name": "",
          "type": "uint256"
        }
      ],
      "payable": false,
      "stateMutability": "view",
      "type": "function"
    },
    {
      "inputs": [
        {
          "name": "_seller",
          "type": "address"
        },
        {
          "name": "_reserve_price",
          "type": "uint256"
        },
        {
          "name": "_commitment_phase_length",
          "type": "uint256"
        },
        {
          "name": "_withdrawal_phase_length",
          "type": "uint256"
        },
        {
          "name": "_opening_phase_length",
          "type": "uint256"
        },
        {
          "name": "_deposit_requirement",
          "type": "uint256"
        },
        {
          "name": "_escrow_duration",
          "type": "uint256"
        },
        {
          "name": "_debug",
          "type": "bool"
        }
      ],
      "payable": false,
      "stateMutability": "nonpayable",
      "type": "constructor"
    },
    {
      "anonymous": false,
      "inputs": [
        {
          "indexed": false,
          "name": "",
          "type": "address"
        }
      ],
      "name": "LogEnvelopeCommited",
      "type": "event"
    },
    {
      "anonymous": false,
      "inputs": [
        {
          "indexed": false,
          "name": "",
          "type": "address"
        }
      ],
      "name": "LogEnvelopeWithdrawn",
      "type": "event"
    },
    {
      "anonymous": false,
      "inputs": [
        {
          "indexed": false,
          "name": "",
          "type": "address"
        },
        {
          "indexed": false,
          "name": "",
          "type": "uint256"
        }
      ],
      "name": "LogVoidBid",
      "type": "event"
    },
    {
      "anonymous": false,
      "inputs": [
        {
          "indexed": false,
          "name": "",
          "type": "address"
        },
        {
          "indexed": false,
          "name": "",
          "type": "uint256"
        }
      ],
      "name": "LogLosingBid",
      "type": "event"
    },
    {
      "anonymous": false,
      "inputs": [
        {
          "indexed": false,
          "name": "",
          "type": "uint256"
        },
        {
          "indexed": false,
          "name": "",
          "type": "uint256"
        }
      ],
      "name": "LogUpdateSecondPrice",
      "type": "event"
    },
    {
      "anonymous": false,
      "inputs": [
        {
          "indexed": false,
          "name": "",
          "type": "uint256"
        },
        {
          "indexed": false,
          "name": "",
          "type": "uint256"
        }
      ],
      "name": "LogAuctionStarting",
      "type": "event"
    },
    {
      "anonymous": false,
      "inputs": [
        {
          "indexed": false,
          "name": "",
          "type": "address"
        },
        {
          "indexed": false,
          "name": "",
          "type": "uint256"
        },
        {
          "indexed": false,
          "name": "",
          "type": "uint256"
        }
      ],
      "name": "LogHighestBid",
      "type": "event"
    },
    {
      "constant": true,
      "inputs": [
        {
          "name": "nonce",
          "type": "bytes32"
        },
        {
          "name": "val",
          "type": "uint256"
        }
      ],
      "name": "debug_keccak",
      "outputs": [
        {
          "name": "",
          "type": "bytes32"
        }
      ],
      "payable": false,
      "stateMutability": "pure",
      "type": "function"
    },
    {
      "constant": false,
      "inputs": [
        {
          "name": "_envelope",
          "type": "bytes32"
        }
      ],
      "name": "commit",
      "outputs": [],
      "payable": true,
      "stateMutability": "payable",
      "type": "function"
    },
    {
      "constant": false,
      "inputs": [],
      "name": "withdraw_envelope",
      "outputs": [],
      "payable": false,
      "stateMutability": "nonpayable",
      "type": "function"
    },
    {
      "constant": false,
      "inputs": [
        {
          "name": "nonce",
          "type": "bytes32"
        }
      ],
      "name": "open",
      "outputs": [],
      "payable": true,
      "stateMutability": "payable",
      "type": "function"
    },
    {
      "constant": false,
      "inputs": [],
      "name": "finalize",
      "outputs": [
        {
          "name": "",
          "type": "address"
        }
      ],
      "payable": false,
      "stateMutability": "nonpayable",
      "type": "function"
    },
    {
      "constant": false,
      "inputs": [],
      "name": "ask_refund",
      "outputs": [],
      "payable": false,
      "stateMutability": "nonpayable",
      "type": "function"
    }
  ],
  "bytecode": "0x608060405233600660006101000a81548173ffffffffffffffffffffffffffffffffffffffff021916908373ffffffffffffffffffffffffffffffffffffffff16021790555043600e5534801561005557600080fd5b50604051610100806118a9833981018060405261010081101561007757600080fd5b810190808051906020019092919080519060200190929190805190602001909291908051906020019092919080519060200190929190805190602001909291908051906020019092919080519060200190929190505050600083116100db57600080fd5b600087116100e857600080fd5b600487816100f257fe5b04831015801561010c57506002878161010757fe5b048311155b61011557600080fd5b87600560016101000a81548173ffffffffffffffffffffffffffffffffffffffff021916908373ffffffffffffffffffffffffffffffffffffffff16021790555082600c819055508660088190555085600981905550600954600e5401600f8190555084600a819055506001600f5401601081905550600a546010540160118190555083600b81905550600160115401601281905550600b546012540160138190555081600d8190555080600560006101000a81548160ff0219169083151502179055507fc2c19c52f2e656ec534b32dc921dfde2ad111398350b58fbfb04ec93640e9ecd600e54601354604051808381526020018281526020019250505060405180910390a15050505050505050611676806102336000396000f3fe60806040526004361061011f5760003560e01c8063bcde4f57116100a0578063d3b3f73a11610064578063d3b3f73a14610441578063db0cf6381461046f578063efbe1c1c1461049a578063f14fcbc8146104c5578063f438ab85146104f35761011f565b8063bcde4f571461037e578063bdbd1a04146103a9578063be9a6555146103d4578063c2379130146103ff578063d3697fe51461042a5761011f565b806362ea82db116100e757806362ea82db1461025957806366b5524f146102e657806368dc824d14610311578063a3d7a2a51461033c578063af902072146103535761011f565b806302c7e7af146101245780631b0f697714610153578063224bde6d1461017e5780634bb278f3146101a95780634fb2f3a414610200575b600080fd5b34801561013057600080fd5b5061013961051e565b604051808215151515815260200191505060405180910390f35b34801561015f57600080fd5b50610168610531565b6040518082815260200191505060405180910390f35b34801561018a57600080fd5b50610193610537565b6040518082815260200191505060405180910390f35b3480156101b557600080fd5b506101be61053d565b604051808273ffffffffffffffffffffffffffffffffffffffff1673ffffffffffffffffffffffffffffffffffffffff16815260200191505060405180910390f35b34801561020c57600080fd5b506102436004803603604081101561022357600080fd5b8101908080359060200190929190803590602001909291905050506107be565b6040518082815260200191505060405180910390f35b34801561026557600080fd5b506102a86004803603602081101561027c57600080fd5b81019080803573ffffffffffffffffffffffffffffffffffffffff1690602001909291905050506107f7565b604051808681526020018581526020018415151515815260200183151515158152602001821515151581526020019550505050505060405180910390f35b3480156102f257600080fd5b506102fb610854565b6040518082815260200191505060405180910390f35b34801561031d57600080fd5b5061032661085a565b6040518082815260200191505060405180910390f35b34801561034857600080fd5b50610351610860565b005b34801561035f57600080fd5b50610368610a0d565b6040518082815260200191505060405180910390f35b34801561038a57600080fd5b50610393610a13565b6040518082815260200191505060405180910390f35b3480156103b557600080fd5b506103be610a19565b6040518082815260200191505060405180910390f35b3480156103e057600080fd5b506103e9610a1f565b6040518082815260200191505060405180910390f35b34801561040b57600080fd5b50610414610a25565b6040518082815260200191505060405180910390f35b34801561043657600080fd5b5061043f610a2b565b005b61046d6004803603602081101561045757600080fd5b8101908080359060200190929190505050610c44565b005b34801561047b57600080fd5b506104846112e7565b6040518082815260200191505060405180910390f35b3480156104a657600080fd5b506104af6112ed565b6040518082815260200191505060405180910390f35b6104f1600480360360208110156104db57600080fd5b81019080803590602001909291905050506112f3565b005b3480156104ff57600080fd5b506105086114ec565b6040518082815260200191505060405180910390f35b601660009054906101000a900460ff1681565b60105481565b60115481565b6000601354431161054d57600080fd5b600660009054906101000a900473ffffffffffffffffffffffffffffffffffffffff1673ffffffffffffffffffffffffffffffffffffffff163373ffffffffffffffffffffffffffffffffffffffff1614806105f65750600560019054906101000a900473ffffffffffffffffffffffffffffffffffffffff1673ffffffffffffffffffffffffffffffffffffffff163373ffffffffffffffffffffffffffffffffffffffff16145b8061064e5750600360009054906101000a900473ffffffffffffffffffffffffffffffffffffffff1673ffffffffffffffffffffffffffffffffffffffff163373ffffffffffffffffffffffffffffffffffffffff16145b61065757600080fd5b6000601554600560019054906101000a900473ffffffffffffffffffffffffffffffffffffffff16600360009054906101000a900473ffffffffffffffffffffffffffffffffffffffff166040516106ae906114f2565b808373ffffffffffffffffffffffffffffffffffffffff1673ffffffffffffffffffffffffffffffffffffffff1681526020018273ffffffffffffffffffffffffffffffffffffffff1673ffffffffffffffffffffffffffffffffffffffff168152602001925050506040518091039082f080158015610732573d6000803e3d6000fd5b5090509050600760009054906101000a900473ffffffffffffffffffffffffffffffffffffffff1673ffffffffffffffffffffffffffffffffffffffff166108fc3073ffffffffffffffffffffffffffffffffffffffff16319081150290604051600060405180830381858888f193505050501580156107b6573d6000803e3d6000fd5b508091505090565b60008282604051602001808381526020018281526020019250505060405160208183030381529060405280519060200120905092915050565b60146020528060005260406000206000915090508060000154908060010154908060020160009054906101000a900460ff16908060020160019054906101000a900460ff16908060020160029054906101000a900460ff16905085565b600b5481565b60085481565b601054601154600560009054906101000a900460ff1661089857600e54431015801561088e57506013544311155b61089757600080fd5b5b60001515601460003373ffffffffffffffffffffffffffffffffffffffff1673ffffffffffffffffffffffffffffffffffffffff16815260200190815260200160002060020160019054906101000a900460ff161515146108f857600080fd5b6001601460003373ffffffffffffffffffffffffffffffffffffffff1673ffffffffffffffffffffffffffffffffffffffff16815260200190815260200160002060020160016101000a81548160ff0219169083151502179055507fe549fd85dc3b7e84c965877a3fa890525e7a14175c5acd686382189dbf7d910933604051808273ffffffffffffffffffffffffffffffffffffffff1673ffffffffffffffffffffffffffffffffffffffff16815260200191505060405180910390a13373ffffffffffffffffffffffffffffffffffffffff166108fc6002600c54816109dc57fe5b049081150290604051600060405180830381858888f19350505050158015610a08573d6000803e3d6000fd5b505050565b600f5481565b600c5481565b60155481565b600e5481565b60095481565b6013544311610a3957600080fd5b601460003373ffffffffffffffffffffffffffffffffffffffff1673ffffffffffffffffffffffffffffffffffffffff16815260200190815260200160002060020160009054906101000a900460ff168015610ae25750601460003373ffffffffffffffffffffffffffffffffffffffff1673ffffffffffffffffffffffffffffffffffffffff16815260200190815260200160002060020160029054906101000a900460ff16155b610aeb57600080fd5b6001601460003373ffffffffffffffffffffffffffffffffffffffff1673ffffffffffffffffffffffffffffffffffffffff16815260200190815260200160002060020160026101000a81548160ff0219169083151502179055506000600360009054906101000a900473ffffffffffffffffffffffffffffffffffffffff1673ffffffffffffffffffffffffffffffffffffffff163373ffffffffffffffffffffffffffffffffffffffff161415610bb05760155460045403600c54019050610bfa565b601460003373ffffffffffffffffffffffffffffffffffffffff1673ffffffffffffffffffffffffffffffffffffffff16815260200190815260200160002060010154600c540190505b3373ffffffffffffffffffffffffffffffffffffffff166108fc829081150290604051600060405180830381858888f19350505050158015610c40573d6000803e3d6000fd5b5050565b601254601354600560009054906101000a900460ff16610c7c57600e544310158015610c7257506013544311155b610c7b57600080fd5b5b6000601460003373ffffffffffffffffffffffffffffffffffffffff1673ffffffffffffffffffffffffffffffffffffffff1681526020019081526020016000206000015414158015610d1c5750601460003373ffffffffffffffffffffffffffffffffffffffff1673ffffffffffffffffffffffffffffffffffffffff16815260200190815260200160002060020160009054906101000a900460ff16155b8015610d755750601460003373ffffffffffffffffffffffffffffffffffffffff1673ffffffffffffffffffffffffffffffffffffffff16815260200190815260200160002060020160019054906101000a900460ff16155b610d7e57600080fd5b600083346040516020018083815260200182815260200192505050604051602081830303815290604052805190602001209050601460003373ffffffffffffffffffffffffffffffffffffffff1673ffffffffffffffffffffffffffffffffffffffff168152602001908152602001600020600001548114610dff57600080fd5b6001601460003373ffffffffffffffffffffffffffffffffffffffff1673ffffffffffffffffffffffffffffffffffffffff16815260200190815260200160002060020160006101000a81548160ff02191690831515021790555034601460003373ffffffffffffffffffffffffffffffffffffffff1673ffffffffffffffffffffffffffffffffffffffff16815260200190815260200160002060010181905550600854341015610fcb576001601460003373ffffffffffffffffffffffffffffffffffffffff1673ffffffffffffffffffffffffffffffffffffffff16815260200190815260200160002060020160026101000a81548160ff0219169083151502179055507f8a0692169e5af7f719f34a053eec0e235739b669bf1c22e985b09c32cd7af0003334604051808373ffffffffffffffffffffffffffffffffffffffff1673ffffffffffffffffffffffffffffffffffffffff1681526020018281526020019250505060405180910390a13373ffffffffffffffffffffffffffffffffffffffff166108fc6002600c5481610f9757fe5b0434019081150290604051600060405180830381858888f19350505050158015610fc5573d6000803e3d6000fd5b506112e1565b600060045414156110a1576008546015819055503460048190555033600360006101000a81548173ffffffffffffffffffffffffffffffffffffffff021916908373ffffffffffffffffffffffffffffffffffffffff1602179055507f2fdfae8f739f39313524d099053770ab9602ed675bd8e847776a4108ee4673c43334600854604051808473ffffffffffffffffffffffffffffffffffffffff1673ffffffffffffffffffffffffffffffffffffffff168152602001838152602001828152602001935050505060405180910390a16112e0565b60045434116112185760155434106110fc577f39b8dbc1e998aef0aa9678e7b1e75bf4cf8ccb825cded22362538257a58f314034601554604051808381526020018281526020019250505060405180910390a1346015819055505b6001601460003373ffffffffffffffffffffffffffffffffffffffff1673ffffffffffffffffffffffffffffffffffffffff16815260200190815260200160002060020160026101000a81548160ff0219169083151502179055506000600c54340190507fa3fed4112365c0925311f8e906c8ccc1c86ce85201b996dc41e824ff262930c23334604051808373ffffffffffffffffffffffffffffffffffffffff1673ffffffffffffffffffffffffffffffffffffffff1681526020018281526020019250505060405180910390a13373ffffffffffffffffffffffffffffffffffffffff166108fc829081150290604051600060405180830381858888f19350505050158015611211573d6000803e3d6000fd5b50506112df565b6004546015819055503460048190555033600360006101000a81548173ffffffffffffffffffffffffffffffffffffffff021916908373ffffffffffffffffffffffffffffffffffffffff1602179055507f2fdfae8f739f39313524d099053770ab9602ed675bd8e847776a4108ee4673c43334601554604051808473ffffffffffffffffffffffffffffffffffffffff1673ffffffffffffffffffffffffffffffffffffffff168152602001838152602001828152602001935050505060405180910390a15b5b5b50505050565b60125481565b60135481565b600e54600f54600560009054906101000a900460ff1661132b57600e54431015801561132157506013544311155b61132a57600080fd5b5b600560019054906101000a900473ffffffffffffffffffffffffffffffffffffffff1673ffffffffffffffffffffffffffffffffffffffff163373ffffffffffffffffffffffffffffffffffffffff16141580156113d75750600660009054906101000a900473ffffffffffffffffffffffffffffffffffffffff1673ffffffffffffffffffffffffffffffffffffffff163373ffffffffffffffffffffffffffffffffffffffff1614155b6113e057600080fd5b6000601460003373ffffffffffffffffffffffffffffffffffffffff1673ffffffffffffffffffffffffffffffffffffffff168152602001908152602001600020600001541461142f57600080fd5b600c54341461143d57600080fd5b82601460003373ffffffffffffffffffffffffffffffffffffffff1673ffffffffffffffffffffffffffffffffffffffff168152602001908152602001600020600001819055507f01562848c2825f048438ebd695d1c5064034f219f525839dcd14378e7de6659033604051808273ffffffffffffffffffffffffffffffffffffffff1673ffffffffffffffffffffffffffffffffffffffff16815260200191505060405180910390a1505050565b600a5481565b61014b806115008339019056fe608060405260405160408061014b8339810180604052604081101561002357600080fd5b8101908080519060200190929190805190602001909291905050508073ffffffffffffffffffffffffffffffffffffffff168273ffffffffffffffffffffffffffffffffffffffff16141561007757600080fd5b6000341161008457600080fd5b81600160006101000a81548173ffffffffffffffffffffffffffffffffffffffff021916908373ffffffffffffffffffffffffffffffffffffffff16021790555080600260006101000a81548173ffffffffffffffffffffffffffffffffffffffff021916908373ffffffffffffffffffffffffffffffffffffffff16021790555050506035806101166000396000f3fe6080604052600080fdfea165627a7a72305820c269fb78ef3cf36008a022334293ae3e42a2ec185976fd37f2d5795527b665400029a165627a7a72305820946b52c952fecc0ee5ff1ab7c90eb320fba972fb4d34ded45d161a0113c3e51b0029",
  "source": "pragma solidity >=0.4.21 <0.6.0;\n\nimport \"./Auction.sol\";\nimport \"./Escrow.sol\";\n\ncontract VickreyAuction is Auction {\n    \n    struct Bid {\n        bytes32 bid_hash;\n        uint value;\n        bool opened;\n        bool withdrawn;\n        bool refund;\n    }\n    \n    /// static after contract constructor\n    address payable seller;\n    address payable auctioneer = msg.sender;\n    address payable charity;\n    uint public reserve_price;\n    uint public commitment_phase_length;\n    uint public withdrawal_phase_length;\n    uint public opening_phase_length;\n    uint public deposit_requirement;\n    uint escrow_duration;\n    \n    uint public start = block.number; /// 20 is a grace period of about 5 mins\n    uint public end_commitment;\n\n    uint public start_withdrawal;\n    uint public end_withdrawal;\n    \n    uint public start_opening;\n    uint public end;\n    \n    /// state of the contract\n    mapping(address => Bid) public bids;\n\n    uint public price_to_pay; /// 2nd highest bid\n    \n    /// finalizing \n    bool public sold;\n\n    event LogEnvelopeCommited(address);\n    event LogEnvelopeWithdrawn(address);\n    event LogVoidBid(address, uint);\n    event LogLosingBid(address, uint);\n    event LogUpdateSecondPrice(uint, uint);\n    \n    \n    modifier only_during(uint start_block, uint end_block) {\n        if(!debug)\n            require(block.number >= start && block.number <= end); _;\n    }\n    \n    modifier only_when_closed {\n        require(block.number > end); _;\n    }\n    \n    modifier only_auctioneer_seller_buyer {\n        require(msg.sender == auctioneer || msg.sender == seller || msg.sender == highest_bidder); _;\n    }\n    \n    modifier only_one_refund {\n        require(bids[msg.sender].opened && !bids[msg.sender].refund); _;\n        /// withdrawn => !opened\n    }\n    \n    function debug_keccak(bytes32 nonce, uint val) public pure returns (bytes32) {\n        return keccak256(abi.encode(nonce,val));\n    }\n    \n    constructor (address payable _seller, uint _reserve_price, uint _commitment_phase_length, uint _withdrawal_phase_length, \n                    uint _opening_phase_length, uint _deposit_requirement, uint _escrow_duration, bool _debug) public {\n        require(_deposit_requirement > 0);\n        require(_reserve_price > 0);\n        require(_deposit_requirement >= _reserve_price/4 && _deposit_requirement <= _reserve_price/2);\n\n        seller = _seller;\n\n        deposit_requirement  = _deposit_requirement;\n        reserve_price = _reserve_price;\n\n        commitment_phase_length = _commitment_phase_length;\n        end_commitment = start+commitment_phase_length;\n        \n        withdrawal_phase_length = _withdrawal_phase_length;\n        start_withdrawal = end_commitment+1;\n        end_withdrawal = start_withdrawal+withdrawal_phase_length;\n        \n        opening_phase_length = _opening_phase_length;\n        start_opening = end_withdrawal+1;\n        end = start_opening+opening_phase_length;\n        \n        escrow_duration = _escrow_duration;\n        debug = _debug;\n        \n        emit LogAuctionStarting(start, end);\n    }\n    \n    function commit(bytes32 _envelope) public payable only_during(start, end_commitment) {\n        require(msg.sender != seller && msg.sender != auctioneer);\n        require(bids[msg.sender].bid_hash == \"\");\n        require(msg.value == deposit_requirement);\n        \n        bids[msg.sender].bid_hash = _envelope;\n        \n        emit LogEnvelopeCommited(msg.sender);\n        \n    }\n    \n    function withdraw_envelope() public only_during(start_withdrawal, end_withdrawal) {\n        require(bids[msg.sender].withdrawn == false);\n        \n        bids[msg.sender].withdrawn = true;\n        emit LogEnvelopeWithdrawn(msg.sender);\n\n        msg.sender.transfer(deposit_requirement/2);\n        \n    }\n    \n    function open(bytes32 nonce) public payable only_during(start_opening, end) {\n        require(bids[msg.sender].bid_hash != \"\" && !bids[msg.sender].opened && !bids[msg.sender].withdrawn);\n\n        bytes32 hash = keccak256(abi.encode(nonce, msg.value));\n        require(hash == bids[msg.sender].bid_hash);\n        \n        bids[msg.sender].opened = true;\n        bids[msg.sender].value = msg.value;\n        \n        /// void bid \n        if(msg.value < reserve_price) {\n            bids[msg.sender].refund = true;\n            emit LogVoidBid(msg.sender, msg.value);\n            msg.sender.transfer(msg.value+(deposit_requirement/2));\n        } else {    \n            /// first valid opened bid\n            if(highest_bid == 0) {\n                price_to_pay = reserve_price;\n                highest_bid = msg.value;\n                highest_bidder = msg.sender;\n                emit LogHighestBid(msg.sender, msg.value, reserve_price);\n            }\n            /// losing bid\n            else if(msg.value <= highest_bid ) {\n               ///...but check if 2nd highest bid\n                if(msg.value >= price_to_pay) {\n                    emit LogUpdateSecondPrice(msg.value, price_to_pay);\n                    price_to_pay = msg.value;\n                }\n                bids[msg.sender].refund = true;\n                uint full_refund = msg.value+deposit_requirement;\n                emit LogLosingBid(msg.sender, msg.value);\n                msg.sender.transfer(full_refund);\n            }\n            /// new highest_bid\n            else {\n                price_to_pay = highest_bid;\n                highest_bid = msg.value;\n                highest_bidder = msg.sender;\n                emit LogHighestBid(msg.sender, msg.value, price_to_pay);\n            }\n        }\n    }\n    \n    function finalize() public only_when_closed only_auctioneer_seller_buyer returns (address){\n        /// initialize escrow contract\n        Escrow e = (new Escrow).value(price_to_pay)(seller, highest_bidder);\n        /// send fund to charity\n        charity.transfer(address(this).balance);\n        \n        return address(e);\n    }\n    \n    function ask_refund() public only_when_closed only_one_refund {\n        bids[msg.sender].refund = true;\n        \n        uint refund;\n        \n        if(msg.sender == highest_bidder)\n            refund = deposit_requirement+(highest_bid-price_to_pay);\n        else\n            refund = deposit_requirement+bids[msg.sender].value;\n        \n        \n        msg.sender.transfer(refund);\n    }\n}",
  "sourcePath": "/home/bongi/Scrivania/Smart-Auctions/contracts/VickreyAuction.sol",
  "compiler": {
    "name": "solc",
    "version": "0.5.8+commit.23d335f2.Emscripten.clang"
  },
  "schemaVersion": "3.0.10",
  "updatedAt": "2019-06-11T15:28:15.862Z",
  "devdoc": {
    "methods": {}
  },
  "userdoc": {
    "methods": {}
  }
}