{
  "contractName": "VickreyAuction",
  "abi": [
    {
      "constant": true,
      "inputs": [],
      "name": "sold",
      "outputs": [
        {
          "name": "",
          "type": "bool"
        }
      ],
      "payable": false,
      "stateMutability": "view",
      "type": "function"
    },
    {
      "constant": true,
      "inputs": [],
      "name": "start_withdrawal",
      "outputs": [
        {
          "name": "",
          "type": "uint256"
        }
      ],
      "payable": false,
      "stateMutability": "view",
      "type": "function"
    },
    {
      "constant": true,
      "inputs": [],
      "name": "end_withdrawal",
      "outputs": [
        {
          "name": "",
          "type": "uint256"
        }
      ],
      "payable": false,
      "stateMutability": "view",
      "type": "function"
    },
    {
      "constant": true,
      "inputs": [],
      "name": "total_withdrawn",
      "outputs": [
        {
          "name": "",
          "type": "uint256"
        }
      ],
      "payable": false,
      "stateMutability": "view",
      "type": "function"
    },
    {
      "constant": true,
      "inputs": [],
      "name": "total_void",
      "outputs": [
        {
          "name": "",
          "type": "uint256"
        }
      ],
      "payable": false,
      "stateMutability": "view",
      "type": "function"
    },
    {
      "constant": true,
      "inputs": [
        {
          "name": "",
          "type": "address"
        }
      ],
      "name": "bids",
      "outputs": [
        {
          "name": "bid_hash",
          "type": "bytes32"
        },
        {
          "name": "value",
          "type": "uint256"
        },
        {
          "name": "opened",
          "type": "bool"
        },
        {
          "name": "withdrawn",
          "type": "bool"
        },
        {
          "name": "refund",
          "type": "bool"
        }
      ],
      "payable": false,
      "stateMutability": "view",
      "type": "function"
    },
    {
      "constant": true,
      "inputs": [],
      "name": "opening_phase_length",
      "outputs": [
        {
          "name": "",
          "type": "uint256"
        }
      ],
      "payable": false,
      "stateMutability": "view",
      "type": "function"
    },
    {
      "constant": true,
      "inputs": [],
      "name": "reserve_price",
      "outputs": [
        {
          "name": "",
          "type": "uint256"
        }
      ],
      "payable": false,
      "stateMutability": "view",
      "type": "function"
    },
    {
      "constant": true,
      "inputs": [],
      "name": "end_commitment",
      "outputs": [
        {
          "name": "",
          "type": "uint256"
        }
      ],
      "payable": false,
      "stateMutability": "view",
      "type": "function"
    },
    {
      "constant": true,
      "inputs": [],
      "name": "deposit_requirement",
      "outputs": [
        {
          "name": "",
          "type": "uint256"
        }
      ],
      "payable": false,
      "stateMutability": "view",
      "type": "function"
    },
    {
      "constant": true,
      "inputs": [],
      "name": "highest_bidder",
      "outputs": [
        {
          "name": "",
          "type": "address"
        }
      ],
      "payable": false,
      "stateMutability": "view",
      "type": "function"
    },
    {
      "constant": true,
      "inputs": [],
      "name": "price_to_pay",
      "outputs": [
        {
          "name": "",
          "type": "uint256"
        }
      ],
      "payable": false,
      "stateMutability": "view",
      "type": "function"
    },
    {
      "constant": true,
      "inputs": [],
      "name": "start",
      "outputs": [
        {
          "name": "",
          "type": "uint256"
        }
      ],
      "payable": false,
      "stateMutability": "view",
      "type": "function"
    },
    {
      "constant": true,
      "inputs": [],
      "name": "commitment_phase_length",
      "outputs": [
        {
          "name": "",
          "type": "uint256"
        }
      ],
      "payable": false,
      "stateMutability": "view",
      "type": "function"
    },
    {
      "constant": true,
      "inputs": [],
      "name": "total_opened",
      "outputs": [
        {
          "name": "",
          "type": "uint256"
        }
      ],
      "payable": false,
      "stateMutability": "view",
      "type": "function"
    },
    {
      "constant": true,
      "inputs": [],
      "name": "total_bid",
      "outputs": [
        {
          "name": "",
          "type": "uint256"
        }
      ],
      "payable": false,
      "stateMutability": "view",
      "type": "function"
    },
    {
      "constant": true,
      "inputs": [],
      "name": "start_opening",
      "outputs": [
        {
          "name": "",
          "type": "uint256"
        }
      ],
      "payable": false,
      "stateMutability": "view",
      "type": "function"
    },
    {
      "constant": true,
      "inputs": [],
      "name": "highest_bid",
      "outputs": [
        {
          "name": "",
          "type": "uint256"
        }
      ],
      "payable": false,
      "stateMutability": "view",
      "type": "function"
    },
    {
      "constant": true,
      "inputs": [],
      "name": "end",
      "outputs": [
        {
          "name": "",
          "type": "uint256"
        }
      ],
      "payable": false,
      "stateMutability": "view",
      "type": "function"
    },
    {
      "constant": true,
      "inputs": [],
      "name": "withdrawal_phase_length",
      "outputs": [
        {
          "name": "",
          "type": "uint256"
        }
      ],
      "payable": false,
      "stateMutability": "view",
      "type": "function"
    },
    {
      "inputs": [
        {
          "name": "_seller",
          "type": "address"
        },
        {
          "name": "_reserve_price",
          "type": "uint256"
        },
        {
          "name": "_commitment_phase_length",
          "type": "uint256"
        },
        {
          "name": "_withdrawal_phase_length",
          "type": "uint256"
        },
        {
          "name": "_opening_phase_length",
          "type": "uint256"
        },
        {
          "name": "_deposit_requirement",
          "type": "uint256"
        }
      ],
      "payable": false,
      "stateMutability": "nonpayable",
      "type": "constructor"
    },
    {
      "anonymous": false,
      "inputs": [
        {
          "indexed": false,
          "name": "",
          "type": "uint256"
        },
        {
          "indexed": false,
          "name": "",
          "type": "uint256"
        }
      ],
      "name": "LogAuctionStarting",
      "type": "event"
    },
    {
      "anonymous": false,
      "inputs": [
        {
          "indexed": false,
          "name": "",
          "type": "address"
        }
      ],
      "name": "LogEnvelopeCommited",
      "type": "event"
    },
    {
      "anonymous": false,
      "inputs": [
        {
          "indexed": false,
          "name": "",
          "type": "address"
        }
      ],
      "name": "LogEnvelopeWithdrawn",
      "type": "event"
    },
    {
      "anonymous": false,
      "inputs": [
        {
          "indexed": false,
          "name": "",
          "type": "address"
        },
        {
          "indexed": false,
          "name": "",
          "type": "uint256"
        }
      ],
      "name": "LogVoidBid",
      "type": "event"
    },
    {
      "anonymous": false,
      "inputs": [
        {
          "indexed": false,
          "name": "",
          "type": "address"
        },
        {
          "indexed": false,
          "name": "",
          "type": "uint256"
        }
      ],
      "name": "LogLosingBid",
      "type": "event"
    },
    {
      "anonymous": false,
      "inputs": [
        {
          "indexed": false,
          "name": "",
          "type": "address"
        },
        {
          "indexed": false,
          "name": "",
          "type": "uint256"
        },
        {
          "indexed": false,
          "name": "",
          "type": "uint256"
        }
      ],
      "name": "LogHighestBid",
      "type": "event"
    },
    {
      "anonymous": false,
      "inputs": [
        {
          "indexed": false,
          "name": "",
          "type": "uint256"
        },
        {
          "indexed": false,
          "name": "",
          "type": "uint256"
        }
      ],
      "name": "LogUpdateSecondPrice",
      "type": "event"
    },
    {
      "constant": true,
      "inputs": [
        {
          "name": "nonce",
          "type": "bytes32"
        },
        {
          "name": "val",
          "type": "uint256"
        }
      ],
      "name": "debug_keccak",
      "outputs": [
        {
          "name": "",
          "type": "bytes32"
        }
      ],
      "payable": false,
      "stateMutability": "pure",
      "type": "function"
    },
    {
      "constant": false,
      "inputs": [
        {
          "name": "_envelope",
          "type": "bytes32"
        }
      ],
      "name": "commit",
      "outputs": [],
      "payable": true,
      "stateMutability": "payable",
      "type": "function"
    },
    {
      "constant": false,
      "inputs": [],
      "name": "withdraw_envelope",
      "outputs": [],
      "payable": false,
      "stateMutability": "nonpayable",
      "type": "function"
    },
    {
      "constant": false,
      "inputs": [
        {
          "name": "nonce",
          "type": "bytes32"
        }
      ],
      "name": "open",
      "outputs": [],
      "payable": true,
      "stateMutability": "payable",
      "type": "function"
    },
    {
      "constant": false,
      "inputs": [
        {
          "name": "ok",
          "type": "bool"
        }
      ],
      "name": "finalize",
      "outputs": [],
      "payable": false,
      "stateMutability": "nonpayable",
      "type": "function"
    },
    {
      "constant": false,
      "inputs": [],
      "name": "ask_refund",
      "outputs": [],
      "payable": false,
      "stateMutability": "nonpayable",
      "type": "function"
    }
  ],
  "bytecode": "0x608060405233600260006101000a81548173ffffffffffffffffffffffffffffffffffffffff021916908373ffffffffffffffffffffffffffffffffffffffff1602179055504360095534801561005557600080fd5b5060405160c080611818833981018060405260c081101561007557600080fd5b81019080805190602001909291908051906020019092919080519060200190929190805190602001909291908051906020019092919080519060200190929190505050600081116100c557600080fd5b600085116100d257600080fd5b600485816100dc57fe5b0481101580156100f65750600285816100f157fe5b048111155b6100ff57600080fd5b85600160006101000a81548173ffffffffffffffffffffffffffffffffffffffff021916908373ffffffffffffffffffffffffffffffffffffffff16021790555080600881905550846004819055508360058190555060055460095401600a81905550826006819055506001600a5401600b81905550600654600b5401600c81905550816007819055506001600c5401600d81905550600754600d5401600e819055507fc2c19c52f2e656ec534b32dc921dfde2ad111398350b58fbfb04ec93640e9ecd600954600e54604051808381526020018281526020019250505060405180910390a150505050505061161e806101fa6000396000f3fe6080604052600436106101815760003560e01c8063bd9215f4116100d1578063d3bd45001161008a578063e5c6009111610064578063e5c60091146105e5578063efbe1c1c14610610578063f14fcbc81461063b578063f438ab851461066957610181565b8063d3bd450014610564578063d5e482231461058f578063db0cf638146105ba57610181565b8063bd9215f414610447578063bdbd1a041461049e578063be9a6555146104c9578063c2379130146104f4578063d3697fe51461051f578063d3b3f73a1461053657610181565b806362ea82db1161013e5780636c9789b0116101185780636c9789b01461039d578063a3d7a2a5146103da578063af902072146103f1578063bcde4f571461041c57610181565b806362ea82db146102ba57806366b5524f1461034757806368dc824d1461037257610181565b806302c7e7af146101865780631b0f6977146101b5578063224bde6d146101e057806343bfdd5d1461020b5780634df5c7a4146102365780634fb2f3a414610261575b600080fd5b34801561019257600080fd5b5061019b610694565b604051808215151515815260200191505060405180910390f35b3480156101c157600080fd5b506101ca6106a7565b6040518082815260200191505060405180910390f35b3480156101ec57600080fd5b506101f56106ad565b6040518082815260200191505060405180910390f35b34801561021757600080fd5b506102206106b3565b6040518082815260200191505060405180910390f35b34801561024257600080fd5b5061024b6106b9565b6040518082815260200191505060405180910390f35b34801561026d57600080fd5b506102a46004803603604081101561028457600080fd5b8101908080359060200190929190803590602001909291905050506106bf565b6040518082815260200191505060405180910390f35b3480156102c657600080fd5b50610309600480360360208110156102dd57600080fd5b81019080803573ffffffffffffffffffffffffffffffffffffffff1690602001909291905050506106f8565b604051808681526020018581526020018415151515815260200183151515158152602001821515151581526020019550505050505060405180910390f35b34801561035357600080fd5b5061035c610755565b6040518082815260200191505060405180910390f35b34801561037e57600080fd5b5061038761075b565b6040518082815260200191505060405180910390f35b3480156103a957600080fd5b506103d8600480360360208110156103c057600080fd5b81019080803515159060200190929190505050610761565b005b3480156103e657600080fd5b506103ef61091f565b005b3480156103fd57600080fd5b50610406610ac9565b6040518082815260200191505060405180910390f35b34801561042857600080fd5b50610431610acf565b6040518082815260200191505060405180910390f35b34801561045357600080fd5b5061045c610ad5565b604051808273ffffffffffffffffffffffffffffffffffffffff1673ffffffffffffffffffffffffffffffffffffffff16815260200191505060405180910390f35b3480156104aa57600080fd5b506104b3610afb565b6040518082815260200191505060405180910390f35b3480156104d557600080fd5b506104de610b01565b6040518082815260200191505060405180910390f35b34801561050057600080fd5b50610509610b07565b6040518082815260200191505060405180910390f35b34801561052b57600080fd5b50610534610b0d565b005b6105626004803603602081101561054c57600080fd5b8101908080359060200190929190505050610d26565b005b34801561057057600080fd5b506105796113d8565b6040518082815260200191505060405180910390f35b34801561059b57600080fd5b506105a46113de565b6040518082815260200191505060405180910390f35b3480156105c657600080fd5b506105cf6113e4565b6040518082815260200191505060405180910390f35b3480156105f157600080fd5b506105fa6113ea565b6040518082815260200191505060405180910390f35b34801561061c57600080fd5b506106256113f0565b6040518082815260200191505060405180910390f35b6106676004803603602081101561065157600080fd5b81019080803590602001909291905050506113f6565b005b34801561067557600080fd5b5061067e6115ec565b6040518082815260200191505060405180910390f35b601760009054906101000a900460ff1681565b600b5481565b600c5481565b60155481565b60165481565b60008282604051602001808381526020018281526020019250505060405160208183030381529060405280519060200120905092915050565b600f6020528060005260406000206000915090508060000154908060010154908060020160009054906101000a900460ff16908060020160019054906101000a900460ff16908060020160029054906101000a900460ff16905085565b60075481565b60045481565b600e54431161076f57600080fd5b600260009054906101000a900473ffffffffffffffffffffffffffffffffffffffff1673ffffffffffffffffffffffffffffffffffffffff163373ffffffffffffffffffffffffffffffffffffffff1614806108185750600160009054906101000a900473ffffffffffffffffffffffffffffffffffffffff1673ffffffffffffffffffffffffffffffffffffffff163373ffffffffffffffffffffffffffffffffffffffff16145b806108705750601060009054906101000a900473ffffffffffffffffffffffffffffffffffffffff1673ffffffffffffffffffffffffffffffffffffffff163373ffffffffffffffffffffffffffffffffffffffff16145b61087957600080fd5b600160009054906101000a900473ffffffffffffffffffffffffffffffffffffffff1673ffffffffffffffffffffffffffffffffffffffff166108fc6012549081150290604051600060405180830381858888f193505050501580156108e3573d6000803e3d6000fd5b50600360009054906101000a900473ffffffffffffffffffffffffffffffffffffffff1673ffffffffffffffffffffffffffffffffffffffff16ff5b600b54600c5460095443101580156109395750600e544311155b61094257600080fd5b60001515600f60003373ffffffffffffffffffffffffffffffffffffffff1673ffffffffffffffffffffffffffffffffffffffff16815260200190815260200160002060020160019054906101000a900460ff161515146109a257600080fd5b6001600f60003373ffffffffffffffffffffffffffffffffffffffff1673ffffffffffffffffffffffffffffffffffffffff16815260200190815260200160002060020160016101000a81548160ff0219169083151502179055506015600081548092919060010191905055503373ffffffffffffffffffffffffffffffffffffffff166108fc600260085481610a3557fe5b049081150290604051600060405180830381858888f19350505050158015610a61573d6000803e3d6000fd5b507fe549fd85dc3b7e84c965877a3fa890525e7a14175c5acd686382189dbf7d910933604051808273ffffffffffffffffffffffffffffffffffffffff1673ffffffffffffffffffffffffffffffffffffffff16815260200191505060405180910390a15050565b600a5481565b60085481565b601060009054906101000a900473ffffffffffffffffffffffffffffffffffffffff1681565b60125481565b60095481565b60055481565b600e544311610b1b57600080fd5b600f60003373ffffffffffffffffffffffffffffffffffffffff1673ffffffffffffffffffffffffffffffffffffffff16815260200190815260200160002060020160009054906101000a900460ff168015610bc45750600f60003373ffffffffffffffffffffffffffffffffffffffff1673ffffffffffffffffffffffffffffffffffffffff16815260200190815260200160002060020160029054906101000a900460ff16155b610bcd57600080fd5b6001600f60003373ffffffffffffffffffffffffffffffffffffffff1673ffffffffffffffffffffffffffffffffffffffff16815260200190815260200160002060020160026101000a81548160ff0219169083151502179055506000601060009054906101000a900473ffffffffffffffffffffffffffffffffffffffff1673ffffffffffffffffffffffffffffffffffffffff163373ffffffffffffffffffffffffffffffffffffffff161415610c925760125460115403600854019050610cdc565b600f60003373ffffffffffffffffffffffffffffffffffffffff1673ffffffffffffffffffffffffffffffffffffffff168152602001908152602001600020600101546008540190505b3373ffffffffffffffffffffffffffffffffffffffff166108fc829081150290604051600060405180830381858888f19350505050158015610d22573d6000803e3d6000fd5b5050565b600d54600e546009544310158015610d405750600e544311155b610d4957600080fd5b6000600f60003373ffffffffffffffffffffffffffffffffffffffff1673ffffffffffffffffffffffffffffffffffffffff1681526020019081526020016000206000015414158015610de95750600f60003373ffffffffffffffffffffffffffffffffffffffff1673ffffffffffffffffffffffffffffffffffffffff16815260200190815260200160002060020160009054906101000a900460ff16155b8015610e425750600f60003373ffffffffffffffffffffffffffffffffffffffff1673ffffffffffffffffffffffffffffffffffffffff16815260200190815260200160002060020160019054906101000a900460ff16155b610e4b57600080fd5b600083346040516020018083815260200182815260200192505050604051602081830303815290604052805190602001209050600f60003373ffffffffffffffffffffffffffffffffffffffff1673ffffffffffffffffffffffffffffffffffffffff168152602001908152602001600020600001548114610ecc57600080fd5b6001600f60003373ffffffffffffffffffffffffffffffffffffffff1673ffffffffffffffffffffffffffffffffffffffff16815260200190815260200160002060020160006101000a81548160ff02191690831515021790555034600f60003373ffffffffffffffffffffffffffffffffffffffff1673ffffffffffffffffffffffffffffffffffffffff168152602001908152602001600020600101819055506004543410156110aa576001600f60003373ffffffffffffffffffffffffffffffffffffffff1673ffffffffffffffffffffffffffffffffffffffff16815260200190815260200160002060020160026101000a81548160ff0219169083151502179055506016600081548092919060010191905055507f8a0692169e5af7f719f34a053eec0e235739b669bf1c22e985b09c32cd7af0003334604051808373ffffffffffffffffffffffffffffffffffffffff1673ffffffffffffffffffffffffffffffffffffffff1681526020018281526020019250505060405180910390a13373ffffffffffffffffffffffffffffffffffffffff166108fc60026008548161107657fe5b0434019081150290604051600060405180830381858888f193505050501580156110a4573d6000803e3d6000fd5b506113d2565b60146000815480929190600101919050555060016014541415611192576004546012819055503460118190555033601060006101000a81548173ffffffffffffffffffffffffffffffffffffffff021916908373ffffffffffffffffffffffffffffffffffffffff1602179055507f2fdfae8f739f39313524d099053770ab9602ed675bd8e847776a4108ee4673c43334600454604051808473ffffffffffffffffffffffffffffffffffffffff1673ffffffffffffffffffffffffffffffffffffffff168152602001838152602001828152602001935050505060405180910390a16113d1565b60115434116113095760125434106111ed577f39b8dbc1e998aef0aa9678e7b1e75bf4cf8ccb825cded22362538257a58f314034601254604051808381526020018281526020019250505060405180910390a1346012819055505b6001600f60003373ffffffffffffffffffffffffffffffffffffffff1673ffffffffffffffffffffffffffffffffffffffff16815260200190815260200160002060020160026101000a81548160ff0219169083151502179055506000600854340190507fa3fed4112365c0925311f8e906c8ccc1c86ce85201b996dc41e824ff262930c23334604051808373ffffffffffffffffffffffffffffffffffffffff1673ffffffffffffffffffffffffffffffffffffffff1681526020018281526020019250505060405180910390a13373ffffffffffffffffffffffffffffffffffffffff166108fc829081150290604051600060405180830381858888f19350505050158015611302573d6000803e3d6000fd5b50506113d0565b6011546012819055503460118190555033601060006101000a81548173ffffffffffffffffffffffffffffffffffffffff021916908373ffffffffffffffffffffffffffffffffffffffff1602179055507f2fdfae8f739f39313524d099053770ab9602ed675bd8e847776a4108ee4673c43334601254604051808473ffffffffffffffffffffffffffffffffffffffff1673ffffffffffffffffffffffffffffffffffffffff168152602001838152602001828152602001935050505060405180910390a15b5b5b50505050565b60145481565b60135481565b600d5481565b60115481565b600e5481565b600954600a5460095443101580156114105750600e544311155b61141957600080fd5b600160009054906101000a900473ffffffffffffffffffffffffffffffffffffffff1673ffffffffffffffffffffffffffffffffffffffff163373ffffffffffffffffffffffffffffffffffffffff16141580156114c55750600260009054906101000a900473ffffffffffffffffffffffffffffffffffffffff1673ffffffffffffffffffffffffffffffffffffffff163373ffffffffffffffffffffffffffffffffffffffff1614155b6114ce57600080fd5b6000600f60003373ffffffffffffffffffffffffffffffffffffffff1673ffffffffffffffffffffffffffffffffffffffff168152602001908152602001600020600001541461151d57600080fd5b600854341461152b57600080fd5b82600f60003373ffffffffffffffffffffffffffffffffffffffff1673ffffffffffffffffffffffffffffffffffffffff168152602001908152602001600020600001819055506013600081548092919060010191905055507f01562848c2825f048438ebd695d1c5064034f219f525839dcd14378e7de6659033604051808273ffffffffffffffffffffffffffffffffffffffff1673ffffffffffffffffffffffffffffffffffffffff16815260200191505060405180910390a1505050565b6006548156fea165627a7a72305820fbadc9a46cc1b7f143028b187daf4784d9c0222978db83fc6dd4f1776f56e41b0029",
  "source": "pragma solidity >=0.4.21 <0.6.0;\n\nimport \"./Auction.sol\";\n\ncontract VickreyAuction is Auction {\n    \n    struct Bid {\n        bytes32 bid_hash;\n        uint value;\n        bool opened;\n        bool withdrawn;\n        bool refund;\n    }\n    \n    /// static after contract constructor\n    address payable seller;\n    address payable auctioneer = msg.sender;\n    address payable charity;\n    uint public reserve_price;\n    uint public commitment_phase_length;\n    uint public withdrawal_phase_length;\n    uint public opening_phase_length;\n    uint public deposit_requirement;\n    \n    uint public start = block.number; /// 20 is a grace period of about 5 mins\n    uint public end_commitment;\n\n    uint public start_withdrawal;\n    uint public end_withdrawal;\n    \n    uint public start_opening;\n    uint public end;\n    \n    /// state of the contract\n    mapping(address => Bid) public bids;\n\n    address public highest_bidder;\n    uint public highest_bid;\n    uint public price_to_pay; /// 2nd highest bid\n    \n    uint public total_bid; /// total envelopes received\n    uint public total_opened; /// total envelopes opened\n    uint public total_withdrawn; /// total envelopes withdrawn\n    uint public total_void; /// total envelopes opened but with bid < reserve_price\n    \n    /// finalizing \n    bool public sold;\n\n    event LogAuctionStarting(uint, uint);\n    event LogEnvelopeCommited(address);\n    event LogEnvelopeWithdrawn(address);\n    event LogVoidBid(address, uint);\n    event LogLosingBid(address, uint);\n    event LogHighestBid(address, uint, uint);\n    event LogUpdateSecondPrice(uint, uint);\n    \n    \n    modifier only_during(uint start_block, uint end_block) {\n        require(block.number >= start && block.number <= end); _;\n    }\n    \n    modifier only_when_closed {\n        require(block.number > end); _;\n    }\n    \n    modifier only_auctioneer_seller_buyer {\n        require(msg.sender == auctioneer || msg.sender == seller || msg.sender == highest_bidder); _;\n    }\n    \n    modifier only_one_refund {\n        require(bids[msg.sender].opened && !bids[msg.sender].refund); _;\n        /// withdrawn => !opened\n    }\n    \n    function debug_keccak(bytes32 nonce, uint val) public pure returns (bytes32) {\n        return keccak256(abi.encode(nonce,val));\n    }\n    \n    constructor (address payable _seller, uint _reserve_price, uint _commitment_phase_length, uint _withdrawal_phase_length, uint _opening_phase_length, uint _deposit_requirement) public {\n        require(_deposit_requirement > 0);\n        require(_reserve_price > 0);\n        require(_deposit_requirement >= _reserve_price/4 && _deposit_requirement <= _reserve_price/2);\n\n        seller = _seller;\n\n        deposit_requirement  = _deposit_requirement;\n        reserve_price = _reserve_price;\n\n        commitment_phase_length = _commitment_phase_length;\n        end_commitment = start+commitment_phase_length;\n        \n        withdrawal_phase_length = _withdrawal_phase_length;\n        start_withdrawal = end_commitment+1;\n        end_withdrawal = start_withdrawal+withdrawal_phase_length;\n        \n        opening_phase_length = _opening_phase_length;\n        start_opening = end_withdrawal+1;\n        end = start_opening+opening_phase_length;\n        \n        \n        emit LogAuctionStarting(start, end);\n    }\n    \n    function commit(bytes32 _envelope) public payable only_during(start, end_commitment) {\n        require(msg.sender != seller && msg.sender != auctioneer);\n        require(bids[msg.sender].bid_hash == \"\");\n        require(msg.value == deposit_requirement);\n        \n        bids[msg.sender].bid_hash = _envelope;\n\n        total_bid++;\n        \n        emit LogEnvelopeCommited(msg.sender);\n        \n    }\n    \n    function withdraw_envelope() public only_during(start_withdrawal, end_withdrawal) {\n        require(bids[msg.sender].withdrawn == false);\n        \n        bids[msg.sender].withdrawn = true;\n        total_withdrawn++;\n        msg.sender.transfer(deposit_requirement/2);\n        \n        emit LogEnvelopeWithdrawn(msg.sender);\n    }\n    \n    function open(bytes32 nonce) public payable only_during(start_opening, end) {\n        require(bids[msg.sender].bid_hash != \"\" && !bids[msg.sender].opened && !bids[msg.sender].withdrawn);\n\n        bytes32 hash = keccak256(abi.encode(nonce, msg.value));\n        require(hash == bids[msg.sender].bid_hash);\n        \n        bids[msg.sender].opened = true;\n        bids[msg.sender].value = msg.value;\n        \n        /// void bid \n        if(msg.value < reserve_price) {\n            bids[msg.sender].refund = true;\n            total_void++;\n            emit LogVoidBid(msg.sender, msg.value);\n            msg.sender.transfer(msg.value+(deposit_requirement/2));\n        } else {\n            total_opened++;\n    \n            /// first valid opened bid\n            if(total_opened == 1) {\n                price_to_pay = reserve_price;\n                highest_bid = msg.value;\n                highest_bidder = msg.sender;\n                emit LogHighestBid(msg.sender, msg.value, reserve_price);\n            }\n            /// losing bid\n            else if(msg.value <= highest_bid ) {\n               ///...but check if 2nd highest bid\n                if(msg.value >= price_to_pay) {\n                    emit LogUpdateSecondPrice(msg.value, price_to_pay);\n                    price_to_pay = msg.value;\n                }\n                bids[msg.sender].refund = true;\n                uint full_refund = msg.value+deposit_requirement;\n                emit LogLosingBid(msg.sender, msg.value);\n                msg.sender.transfer(full_refund);\n            }\n            /// new highest_bid\n            else {\n                price_to_pay = highest_bid;\n                highest_bid = msg.value;\n                highest_bidder = msg.sender;\n                emit LogHighestBid(msg.sender, msg.value, price_to_pay);\n            }\n        }\n    }\n    \n    function finalize(bool ok) public only_when_closed only_auctioneer_seller_buyer{\n        \n        /// pay seller\n        seller.transfer(price_to_pay);\n        /// send fund to charity\n        selfdestruct(charity);\n    }\n    \n    function ask_refund() public only_when_closed only_one_refund {\n        bids[msg.sender].refund = true;\n        \n        uint refund;\n        \n        if(msg.sender == highest_bidder)\n            refund = deposit_requirement+(highest_bid-price_to_pay);\n        else\n            refund = deposit_requirement+bids[msg.sender].value;\n        \n        \n        msg.sender.transfer(refund);\n    }\n}",
  "sourcePath": "/home/bongi/Scrivania/Smart-Auctions/contracts/VickreyAuction.sol",
  "compiler": {
    "name": "solc",
    "version": "0.5.8+commit.23d335f2.Emscripten.clang"
  },
  "schemaVersion": "3.0.10",
  "updatedAt": "2019-06-10T10:00:18.464Z",
  "devdoc": {
    "methods": {}
  },
  "userdoc": {
    "methods": {}
  }
}